:020000040800F2
:1000000000500020D95400086D2100086F2100081D
:10001000712100087321000875210008000000000C
:100020000000000000000000000000007721000830
:1000300079210008000000007B2100087D210008D4
:1000400021550008215500082155000821550008B8
:1000500021550008215500082155000821550008A8
:100060002155000821550008215500082155000898
:100070002155000821550008215500082155000888
:100080002155000821550008215500082155000878
:10009000A521000821550008215500082155000818
:1000A00021550008B52100082155000821550008F8
:1000B0002155000821550008215500082155000848
:1000C0002155000821550008215500082155000838
:1000D00021550008C52100082155000821550008B8
:1000E0002155000821550008215500080000000096
:1000F0000000000000000000000000000000000000
:0C01000000000000000000005FF808F1A3
:10010C00034613F8012B002AFBD1181A013870474B
:10011C000348044B834202D0034B03B1184770478A
:10012C007400002074000020000000000548064BFD
:10013C001B1AD90F01EBA301491002D0034B03B1D9
:10014C001847704774000020740000200000000065
:10015C0010B5064C237843B9FFF7DAFF044B13B103
:10016C000448AFF300800123237010BD74000020FD
:10017C0000000000C85E000808B5054B1BB105491E
:10018C000548AFF30080BDE80840FFF7CFBF00BFC4
:10019C000000000078000020C85E0008002800F075
:1001AC00A18038B5044690F82030D3B1226813688A
:1001BC0043F00103136000F08BFB054623685A687B
:1001CC0012F0010F10D100F083FB401B0A28F5D967
:1001DC00636A43F400336362052384F82030012002
:1001EC0038BD01F005FFE1E71A6822F002021A603F
:1001FC0000F06EFB054623685A6812F0020F0DD012
:10020C0000F066FB401B0A28F5D9636A43F40033FF
:10021C006362052384F820300120E1E7227E012A65
:10022C003DD01A6822F080021A60637E012B3BD00D
:10023C002268136823F040031360A37E012B39D08E
:10024C002268136823F020031360E37E012B37D060
:10025C002268136843F010031360237F012B35D001
:10026C002268136823F008031360637F012B33D0DB
:10027C002268136823F004031360A368E268134335
:10028C0022691343626913436268013A216813437C
:10029C00CB6100206062012384F82030A0E71A684B
:1002AC0042F080021A60C0E72268136843F04003F2
:1002BC001360C2E72268136843F020031360C4E79D
:1002CC002268136823F010031360C6E722681368D2
:1002DC0043F008031360C8E72268136843F0040373
:1002EC001360CAE701207047026890F82030013B88
:1002FC00DBB2012B05D9436A43F48023436201200E
:10030C00704710B5D2F8003243F00103C2F8003246
:10031C004B6903F01F03012000FA03F3D2F81C020F
:10032C006FEA030C20EA0300C2F81C02C869C0B9CA
:10033C00D2F80C020CEA0000C2F80C028C88486956
:10034C00D1F80CE044EA0E44483042F830400C88B6
:10035C004869D1F808E044EA0E44483002EBC0008A
:10036C004460C86901281AD0886988BBD2F8040295
:10037C000CEA0000C2F80402086978BBD2F8140237
:10038C000CEA0000C2F81402096A01292CD0D2F838
:10039C00003223F00103C2F80032002010BDD2F865
:1003AC000C021843C2F80C028C884869D1F800E0A2
:1003BC0044EA0E44483042F830408C894869D1F800
:1003CC0008E044EA0E44483002EBC0004460CBE73E
:1003DC00D2F804021843C2F80402CDE7D2F8140292
:1003EC001843C2F81402CFE7D2F81C120B43C2F820
:1003FC001C32CCE770B5044690F82030012B06D0A7
:10040C00436A43F4002343620126304670BDDEB2DA
:10041C00022380F820300268136823F00103136074
:10042C0000F056FA054623685B6813F0010F0CD0F8
:10043C0000F04EFA431B0A2BF5D9636A43F40033E0
:10044C006362052384F82030DFE700266662DCE770
:10045C0090F820C00CF1FF3C5FFA8CFCBCF1010F52
:10046C0000F2A58030B451B90468E46814F0030FAD
:10047C0010D1436A43F40013436201207EE0046808
:10048C00246914F0030F05D1436A43F4001343624B
:10049C00012073E0056801F11B0424012C5904F0C0
:1004AC0004049460002C6BD1056801F11B04240139
:1004BC002C59640D1460046801F11B0C4FEA0C1CE0
:1004CC0054F80C4004F00204D4600468A444DCF832
:1004DC00045015F0080F5BD008241461046801F176
:1004EC001B0C04EB0C146468C4F3072494610468BB
:1004FC0004EB0C146468240C5461026802EB0112C6
:10050C00D2F8B8211A70026802EB0112D2F8B821A5
:10051C00C2F307225A70026802EB0112D2F8B8211A
:10052C00C2F307429A70026802EB0112D2F8B821AA
:10053C00120EDA70026802EB0112D2F8BC211A71A9
:10054C00026802EB0112D2F8BC21C2F307225A71E5
:10055C00026802EB0112D2F8BC21C2F307429A7175
:10056C00026802EB0112D2F8BC21120EDA71C1B989
:10057C000268D36843F02003D360002030BC70477E
:10058C00056801F11B0424012C59E408546092E71E
:10059C0001F11B0504EB0514646804F00F041461ED
:1005AC009CE70268136943F020031361E5E7436A93
:1005BC0043F4802343620120704790F82030013BC4
:1005CC00DBB2012B05D9436A43F48023436201203B
:1005DC007047026853690B435361002070477047A2
:1005EC007047704770477047704770477047704747
:1005FC007047704770472DE9F84F054603685C69F2
:10060C00D3F804809F68D3F80CA0D3F81090D3F8DB
:10061C0018B014F001063BD017F0010616D00122D9
:10062C009A6017F0020F08D117F0040F0CD117F0D5
:10063C00080606D04FF4805608E0FFF7D0FF0026DE
:10064C0004E0FFF7CFFF01E04FF4006617F4807F62
:10065C000DD02B684FF480729A6017F4007F40F035
:10066C00968017F4806F00F0968046F4005617F4CD
:10067C00803F0DD02B684FF480329A6017F4003F06
:10068C0040F0938017F4802F00F0938046F40046DE
:10069C0014F0080F07D01AF0100F04D046F40076AF
:1006AC002B681022DA6014F0040F03D01AF0080F34
:1006BC0040F0898014F0020F05D02B68DB6813F032
:1006CC00030F40F0878014F0400F07D019F0100F83
:1006DC0004D046F480662B6810221A6114F0200FA7
:1006EC0002D019F0080F79D114F0100F04D02B6838
:1006FC001B6913F0030F78D114F4003F02D018F0EB
:10070C00100F76D114F4803F02D018F0080F77D177
:10071C0014F4004F37D018F0040F31D014F4807F4C
:10072C0004D01BF0010F01D046F0010614F4007F39
:10073C0004D01BF0020F01D046F0020614F4806FB7
:10074C0004D01BF0040F01D046F0040614F4006F23
:10075C0016D01BF0700B13D0BBF1400F66D056D8DF
:10076C00BBF1200F5CD0BBF1300F5CD0BBF1100F94
:10077C0001D146F008062A68936923F0700393614F
:10078C002B6804225A60002E56D1BDE8F88F2846FB
:10079C00FFF726FF6BE717F4006F02D046F4804694
:1007AC0065E72846FFF71FFF61E72846FFF719FFAB
:1007BC006EE717F4002F02D046F4803668E728461F
:1007CC00FFF712FF64E72B680822DA602846FFF770
:1007DC000CFF6FE7284601F0C3FA74E72B68082278
:1007EC001A612846FFF703FF7EE72846FFF7FEFE57
:1007FC0082E72B6810225A602846FFF7F9FE81E742
:10080C002B6808225A602846FFF7F3FE80E7BBF1FD
:10081C00500F0ED0BBF1600FADD146F48076AAE735
:10082C0046F01006A7E746F02006A4E746F040067F
:10083C00A1E746F080069EE76B6A33436B6228465D
:10084C00FFF7D8FEA1E7000010B504460E4B1A784E
:10085C004FF47A73B3FBF2F30C4A1068B0FBF3F06D
:10086C0000F056FD68B90F2C01D901200AE00022D6
:10087C0021464FF0FF3000F02DFD054B1C60002091
:10088C0000E0012010BD00BF000000200800002087
:10089C000400002008B5074A136843F010031360E6
:1008AC00032000F005FD0F20FFF7CEFF01F08CFCBC
:1008BC00002008BD00200240034A1168034B1B783E
:1008CC000B441360704700BF900000200000002014
:1008DC00014B1868704700BF9000002038B50446E3
:1008EC00FFF7F6FF0546B4F1FF3F02D0044B1B782F
:1008FC001C44FFF7EDFF401BA042FAD338BD00BFEC
:10090C000000002082B0084B1B68084AA2FB03239E
:10091C005B0A00FB03F3019300BF019B5A1E01927B
:10092C00002BF9D102B0704708000020D34D6210A3
:10093C00002800F0F18170B582B00446036813F012
:10094C00010F2CD0994B5B6803F00C03042B1DD0CA
:10095C00964B5B6803F00C03082B12D06368B3F55D
:10096C00803F41D0002B55D103F1804303F5043374
:10097C001A6822F480321A601A6822F480221A60F3
:10098C0037E08A4B5B6813F4803FE7D0874B1B68DA
:10099C0013F4003F03D06368002B00F0BF81236881
:1009AC0013F0020F75D0814B5B6813F00C0F5FD006
:1009BC007E4B5B6803F00C03082B54D02369002B8F
:1009CC0000F08A807A4B01221A60FFF781FF0546FE
:1009DC00764B1B6813F0020F75D1FFF779FF401BA4
:1009EC000228F5D903209EE1704A136843F4803342
:1009FC001360636843B3FFF76BFF05466B4B1B68D3
:100A0C0013F4003FCBD1FFF763FF401B6428F5D9EB
:100A1C00032088E1B3F5A02F09D0644B1A6822F4A7
:100A2C0080321A601A6822F480221A60E1E703F11E
:100A3C008043A3F53C331A6842F480221A601A688A
:100A4C0042F480321A60D4E7FFF742FF0546574B59
:100A5C001B6813F4003FA2D0FFF73AFF401B642839
:100A6C00F5D903205FE1514B5B6813F4803FA5D1AE
:100A7C004E4B1B6813F0020F03D02369012B40F07F
:100A8C004F814A4A136823F0F803616943EAC103B2
:100A9C001360236813F0080F33D0A369002B5CD0CC
:100AAC00434B0122C3F88024FFF712FF05463F4B4E
:100ABC005B6A13F0020F21D1FFF70AFF401B0228DB
:100ACC00F5D903202FE1394A136823F0F803616943
:100ADC0043EAC1031360DCE7354B00221A60FFF7D1
:100AEC00F7FE0546314B1B6813F0020FD1D0FFF710
:100AFC00EFFE401B0228F5D9032014E10120FFF77B
:100B0C0001FF236813F0040F00F09680274BDB697C
:100B1C0013F0805F34D1254BDA6942F08052DA61F0
:100B2C00DB6903F080530193019B0125214B1B686A
:100B3C0013F4807F26D0E368012B3DD0002B53D1DA
:100B4C0003F1804303F504331A6A22F001021A629E
:100B5C001A6A22F004021A6233E0154B0022C3F821
:100B6C008024FFF7B5FE0546104B5B6A13F0020FAD
:100B7C00C7D0FFF7ADFE401B0228F5D90320D2E009
:100B8C000025D3E70B4A136843F480731360FFF717
:100B9C009FFE0646074B1B6813F4807FCBD1FFF7F3
:100BAC0097FE801B6428F5D90320BCE0001002409E
:100BBC0000004242007000405F4A136A43F0010398
:100BCC001362E36833B3FFF783FE06465A4B1B6A86
:100BDC0013F0020F2FD1FFF77BFE801B41F28833FD
:100BEC009842F3D903209EE0052B09D0524B1A6A88
:100BFC0022F001021A621A6A22F004021A62E0E779
:100C0C004D4B1A6A42F004021A621A6A42F001024F
:100C1C001A62D6E7FFF75CFE0646474B1B6A13F0D9
:100C2C00020F08D0FFF754FE801B41F28833984224
:100C3C00F3D9032077E0E5B9E369002B72D03E4A83
:100C4C00526802F00C02082A56D0022B17D03B4BEC
:100C5C0000221A66FFF73CFE0446374B1B6813F064
:100C6C00007F47D0FFF734FE001B0228F5D9032084
:100C7C0059E0314AD36923F08053D361DCE72F4B21
:100C8C0000221A66FFF724FE05462B4B1B6813F057
:100C9C00007F06D0FFF71CFE401B0228F5D903206D
:100CAC0041E0236AB3F5803F1AD023494B6823F403
:100CBC007413226A606A024313434B601F4B012278
:100CCC001A66FFF705FE04461B4B1B6813F0007FEA
:100CDC000ED1FFF7FDFD001B0228F5D9032022E001
:100CEC00154A536823F40033A1680B435360DCE7C7
:100CFC00002018E0002016E0012B16D00E4B5B688C
:100D0C0003F48031226A914211D103F47013626AA8
:100D1C0093420ED1002006E001207047012002E032
:100D2C00012000E0002002B070BD0120FBE7012093
:100D3C00F9E70120F7E700BF001002400000424233
:100D4C000F4B5B6803F00C02082A01D00D4870476A
:100D5C00C3F383420C49885C13F4803F0BD0084BDF
:100D6C005B68C3F34043094AD35C064A02FB00F0BC
:100D7C00B0FBF3F07047064B03FB00F0704700BF6D
:100D8C000010024000127A00E45E0008E05E0008E9
:100D9C0000093D00002800F0A08070B50D46044607
:100DAC00524B1B6803F007038B420BD24F4A13685C
:100DBC0023F007030B431360136803F007038B4204
:100DCC0040F08D80236813F0020F17D013F0040F3E
:100DDC0004D0474A536843F4E0635360236813F02C
:100DEC00080F04D0424A536843F460535360404A9E
:100DFC00536823F0F003A1680B435360236813F08E
:100E0C00010F31D06368012B20D0022B25D0384A3A
:100E1C00126812F0020F64D035494A6822F00302BE
:100E2C0013434B60FFF754FD0646314B5B6803F0F0
:100E3C000C036268B3EB820F16D0FFF749FD801BE1
:100E4C0041F288339842F0D9032045E0284A1268D1
:100E5C0012F4003FE0D101203EE0254A126812F066
:100E6C00007FD9D1012037E0204B1B6803F007032A
:100E7C00AB420AD91D4A136823F007032B431360B6
:100E8C00136803F00703AB422DD1236813F0040F52
:100E9C0006D0174A536823F4E063E1680B435360B0
:100EAC00236813F0080F07D0114A536823F46053DA
:100EBC00216943EAC1035360FFF742FF0C4B5B68A7
:100ECC00C3F303130B4AD35CD8400B4B18600B4B8A
:100EDC001868FFF7B9FC002070BD01207047012095
:100EEC00FAE70120F8E70120F6E700BF00200240F6
:100EFC0000100240D8600008080000200400002008
:100F0C00014B1868704700BF0800002008B5FFF7B8
:100F1C00F7FF044B5B68C3F30223034AD35CD8404E
:100F2C0008BD00BF00100240D060000808B5FFF7F4
:100F3C00E7FF044B5B68C3F3C223034AD35CD8407E
:100F4C0008BD00BF00100240D060000870B582B030
:100F5C000024A4469EE07C4DAB4214D00CD8A5F5E1
:100F6C008015AB420FD005F57025AB420BD0A5F523
:100F7C008015AB421FD106E0744DAB4203D005F592
:100F8C008035AB4217D18B68A3B1012B0DD04261D8
:100F9C00082410E0CC680EE0CC6804340BE0CC687C
:100FAC00083408E0CC680C3405E00261082402E047
:100FBC00002400E00424BEF1FF0F37D806464FEAA8
:100FCC008C0233680F25954023EA050304FA02F2DC
:100FDC00134333604B6813F0805F59D05C4B9A69B4
:100FEC0042F001029A619B6903F001030193019B9A
:100FFC004FEA9C02951C574B53F825600CF00305E7
:10100C00AD000F23AB4026EA0306534B984214D095
:10101C0003F58063984279D003F58063984277D0CA
:10102C0003F58063984206D0042307E0061DACF15B
:10103C0008029200C5E7032300E00023AB403343D2
:10104C000232444D45F822304B6813F4801F61D0B6
:10105C00424A936843EA0E0393604B6813F4001FF3
:10106C005ED03E4AD36843EA0E03D3604B6813F458
:10107C00003F5BD0394A536843EA0E0353604B6818
:10108C0013F4803F58D0354A136843EA0E031360BB
:10109C000CF1010C0B6833FA0CF253D0012202FA5A
:1010AC000CF203EA020E32EA0303F1D14B68122B65
:1010BC003FF651AF122B3FF67EAF01A555F823F04A
:1010CC00930F0008A10F0008AB0F0008BD0F00081C
:1010DC00C30F0008C30F0008C30F0008C30F00089C
:1010EC00C30F0008C30F0008C30F0008C30F00088C
:1010FC00C30F0008C30F0008C30F0008C30F00087C
:10110C00C30F0008A50F0008B10F0008012395E7D5
:10111C00022393E7114A936823EA0E0393609CE73A
:10112C000E4AD36823EA0E03D3609FE70B4A536839
:10113C0023EA0E035360A2E7084A136823EA0E035E
:10114C001360A5E702B070BD000022100000311042
:10115C000010024000000140000801400004014062
:10116C000AB101617047090401617047034690F8A8
:10117C002120022A06D004228263002280F820203B
:10118C000120704701680A6822F00E020A600168AB
:10119C000A6822F001020A60026CC06B012101FA9C
:1011AC0002F2426083F82110002083F8200070477F
:1011BC0008B590F82130022B03D00423836301205F
:1011CC0008BD0268136823F00E03136002681368ED
:1011DC0023F0010313600368194A934214D01432AC
:1011EC0093421FD0143293421ED0143293421ED01D
:1011FC00143293421ED01432934202D04FF08072BC
:10120C0003E04FF4801200E001220E4B5A600123E0
:10121C0080F82130002380F82030436B6BB1984765
:10122C000020CDE71022F0E74FF48072EDE74FF489
:10123C008052EAE74FF48032E7E70020C0E700BFB6
:10124C000800024000000240002808DB0901C9B276
:10125C0000F1604000F5614080F80013704700F029
:10126C000F000901C9B2014B1954704714ED00E08D
:10127C0000B500F00700C0F1070CBCF1040F28BF4B
:10128C004FF0040C031D062B0FD9C31E4FF0FF3E6D
:10129C000EFA0CF021EA000199400EFA03FE22EA44
:1012AC000E0241EA02005DF804FB0023EEE70000A9
:1012BC00074AD36823F4E0631B041B0C000200F400
:1012CC00E060034343F0BF6343F40033D3607047E3
:1012DC0000ED00E010B50446054BD868C0F30220C1
:1012EC00FFF7C6FF01462046FFF7AEFF10BD00BF5B
:1012FC0000ED00E0002807DB00F01F02400901238D
:10130C009340024A42F82030704700BF00E100E0F1
:10131C000138B0F1807F0BD24FF0E0235861054AC1
:10132C00F02182F823100020986107221A6170477F
:10133C000120704700ED00E0026802F10C0353E855
:10134C00003F23F490730C3242E800310029F3D1B2
:10135C00026802F1140353E8003F23F00103143236
:10136C0042E800310029F3D1036B012B05D0202377
:10137C0080F84230002303637047026802F10C03CB
:10138C0053E8003F23F010030C3242E800310029EF
:10139C00F3D1ECE790F84130212B01D002207047BB
:1013AC008368B3F5805F17D0036A5A1C02621A78FF
:1013BC0003685A60C38C9BB2013B9BB2C3844BB98C
:1013CC000268D36823F08003D3600268D36843F0CB
:1013DC004003D360002070470369002BE4D1036AFB
:1013EC001B880268C3F308035360036A0233036269
:1013FC00E0E7000010B504460268136923F440537B
:10140C00C1680B43136183680269134342691A4331
:10141C000168CB6823F4B05323F00C031343CB6067
:10142C000268536923F4407381690B43536102686A
:10143C00134B9A4220D0FFF769FD024602EB820261
:10144C0002EB820263689B00B2FBF3F20D48A0FB37
:10145C0002314909642303FB11231B013233A0FB26
:10146C0003035B0903F0F00202EB011203F00F031C
:10147C00216813448B6010BDFFF758FD0246DDE771
:10148C00003801401F85EB512DE9F04383B0054630
:10149C000E4617469946DDF828802B681C6836EAFC
:1014AC0004040CBF01240024BC4228D1B8F1FF3F36
:1014BC00F3D0FFF70DFAA0EB0900404523D8B8F1A3
:1014CC00000F22D02B68DA6812F0040FE5D0802EC2
:1014DC00E3D0402EE1D01A6812F0080FDDD00024C2
:1014EC0001941A6801925B680193019B2846FFF7EF
:1014FC0023FF08236B6485F84040012000E00020A6
:10150C0003B0BDE8F0830320FAE70320F8E760B3EB
:10151C0010B5044690F8413013B3242384F84130BD
:10152C002268D36823F40053D3602046FFF762FF90
:10153C002268136923F4904313612268536923F0E2
:10154C002A0353612268D36843F40053D36000200C
:10155C006064202384F8413084F84230606310BD0D
:10156C0080F8403000F0A0FDD7E7012070472DE94E
:10157C00F04182B01E4690F84130202B56D10446E3
:10158C000D469046002955D00AB901204FE00023A2
:10159C004364212380F84130FFF79AF90746A4F8F9
:1015AC002480A4F82680A368B3F5805F02D04FF0A6
:1015BC00000814E023692BB34FF000080FE0202340
:1015CC0084F84130032032E038F8023B2268C3F340
:1015DC0008035360E28C92B2013A92B2E284E38C3B
:1015EC009BB293B100963B46002280212046FFF728
:1015FC004BFF0028E3D1002DE6D015F8012B236812
:10160C005A60E7E7A8460025E9E700963B4600222A
:10161C0040212046FFF738FF18B9202384F84130C9
:10162C0005E0202384F84130032000E0022002B0C2
:10163C00BDE8F0810120FAE7704708B50168CA6877
:10164C0022F04002CA60202280F84120FFF7F4FF0C
:10165C00002008BD704708B5406A0023C385C384C9
:10166C00FFF7F8FF08BD704790F84230222B69D184
:10167C008368B3F5805F4FD0826AB3F5805F04D086
:10168C00002B56D10369002B53D103685B68137090
:10169C00836A01338362C38D9BB2013B9BB2C385CA
:1016AC00002B51D100B583B00268D36823F020031E
:1016BC00D3600268D36823F48073D36002685369E3
:1016CC0023F001035361202380F84230002343634D
:1016DC00036B012B33D100230363026802F10C036B
:1016EC0053E8003F23F010030C3242E8003100298C
:1016FC00F3D103681A6812F0100F06D00022019281
:10170C001A6801925B680193019B818DFFF7ABFF17
:10171C00002003B05DF804FB0269002AACD1826A98
:10172C0003685B68C3F308031380836A0233836224
:10173C00B1E703685B6803F07F031370A8E700F060
:10174C00CDFAE5E7022070470020704710B582B053
:10175C00044602681368D068516913F00F0F09D161
:10176C0013F0200F0CD010F0200F09D02046FFF7FB
:10177C007BFF16E011F0010115D110F4907F12D10E
:10178C00216B012979D013F0800F03D010F0800F5A
:10179C0040F0138113F0400F03D010F0400F40F0D5
:1017AC00108102B010BD13F0010F06D010F4807F31
:1017BC0003D0626C42F00102626413F0040F04D097
:1017CC0019B1626C42F00202626413F0020F04D091
:1017DC0019B1626C42F00402626413F0080F07D076
:1017EC0010F0200F00D119B1626C42F00802626453
:1017FC00626C002AD5D013F0200F02D010F0200F0D
:10180C0029D123685B6903F04003626C12F0080F66
:10181C0000D163B32046FFF78FFD23685B6913F09B
:10182C00400F20D0226802F1140353E8003F23F04C
:10183C004003143242E800310029F3D1E36B73B159
:10184C00624A5A63E06BFFF7B3FC0028A9D0E06B47
:10185C00436B9847A5E72046FFF706FFD1E72046E4
:10186C00FFF7F8FE9DE72046FFF7F4FE99E72046C8
:10187C00FFF7F0FE0023636493E713F0100F82D0A0
:10188C0010F0100F3FF47FAF002301931368019306
:10189C0053680193019B536913F0400F51D0E26BD5
:1018AC0013685B689BB2002B3FF47BAFA18D994210
:1018BC007FF677AFE3859369202B37D0226802F14E
:1018CC000C0353E8003F23F480730C3242E80031E0
:1018DC000029F3D1226802F1140353E8003F23F0EE
:1018EC000103143242E800310029F3D1226802F1DD
:1018FC00140353E8003F23F04003143242E8003154
:10190C000029F3D1202384F842300023236322687A
:10191C0002F10C0353E8003F23F010030C3242E8B1
:10192C0000310029F3D1E06BFFF720FC0223636345
:10193C00A18DE38D9BB2C91A89B22046FFF793FEA5
:10194C002FE7A18DE38D9BB2C91A89B2E38D9BB2AF
:10195C00002B3FF426AF00293FF423AF226802F19D
:10196C000C0353E8003F23F490730C3242E8003030
:10197C000028F3D1226802F1140353E8003F23F04E
:10198C000103143242E800300028F3D1202384F8FC
:10199C00423000232363226802F10C0353E8003F1A
:1019AC0023F010030C3242E800300028F3D102235C
:1019BC0063632046FFF757FEF3E62046FFF7EAFC89
:1019CC00EFE62046FFF739FEEBE600BF6316000892
:1019DC0081628285C28500234364222380F84230D1
:1019EC00036923B10268D36843F48073D36002683F
:1019FC00536943F0010353610268D36843F0200339
:101A0C00D3600020704708B590F84230202B08D1E5
:101A1C0049B10AB9012008BD00230363FFF7D8FFC1
:101A2C00F9E70220F7E70120F5E70000BFF34F8F3D
:101A3C000549CA6802F4E062044B1343CB60BFF360
:101A4C004F8F00BFFDE700BF00ED00E00400FA057A
:101A5C00002303E0034A0021D15401337F2BF9DD2D
:101A6C00704700BF9801002080B5ADF5005D8CB0CB
:101A7C00814800F0CFF94FF4FA70FEF72FFF00F019
:101A8C000DFA7E4800F0C6F940F29D530DF5005258
:101A9C002C3213807A4C0121204600F08DF900F095
:101AAC00C7F9784800F0B6F94021204600F06AF9F1
:101ABC0000F0BEF9744800F0ADF90A22734974487D
:101ACC00FFF7A1FF00F0B4F9724800F0A3F97248D7
:101ADC0002F0A7FD714B187008B1082813D1B0B1F2
:101AEC00082818D06E4C6F4A234607CA03C31A70D5
:101AFC006D4803F0BBFA21466C4800F0B9F96C480C
:101B0C0000F088F964E06B4800F084F9EAE76A4871
:101B1C0000F080F9E6E7694800F07CF9E2E7FEF7AF
:101B2C00D7FE02460DF500531C331860544C636A03
:101B3C000DF5005120310B80403403CC0DF50054D1
:101B4C00223420600DF500502630016094F800C05E
:101B5C000DF50051233109780DF50050243090F823
:101B6C0000E00DF50050253000780DF500542634BA
:101B7C0027780DF50054273425780DF500542834BA
:101B8C0094F800800DF50054293426784C4C06EB63
:101B9C000826039605EB0725029500EB0E20019015
:101BAC0001EB0C2100919BB24649204603F0B4FC9A
:101BBC003E49204602F002FE204600F02BF9FFF7CA
:101BCC0047FF414B00221A6006E0404B1B6873B97B
:101BDC003D4B1B68002BA2D13D4B1B68002BF4D056
:101BEC00324802F013FB3A4B00221A60EDE72E4804
:101BFC0003F06EFA364B00221A602C4C204602F091
:101C0C0064FB01222649204601F0B0FFD4F80C34C5
:101C1C000CA941F8183D1E4C4FF0FF33042220460E
:101C2C00FFF7A5FC4FF0FF3306222A492046FFF7A9
:101C3C009EFC03E0059BB3F5005F11D105AB4FF49F
:101C4C00005207A9194802F082F8059A002AF1D02F
:101C5C004FF0FF3392B207A90D48FFF788FCE9E774
:101C6C004FF0FF3304221C490948FFF780FC0F4852
:101C7C0002F02BFBFFF7DAFEF45E0008085F0008A9
:101C8C0018020020245F0008485F0008180100209B
:101C9C00F80A0020605F0008845F000870020020D2
:101CAC009800002008600008D40B0020740200206B
:101CBC00146000088C5F0008B85F0008DC5F000847
:101CCC009801002028600008680200209400002081
:101CDC006C020020406000084860000838B50446DB
:101CEC00124D4FF0FF330A222946FFF740FC0A221F
:101CFC000F49284603F03AFC58B10A220D490B480B
:101D0C0003F034FC50B10A2208492046FFF77BFE51
:101D1C0038BD094800F07EF8FFF788FE074800F050
:101D2C0079F8074B01221A60EDE700BF180100207B
:101D3C0050600008786000085C600008846000084F
:101D4C00940000200268044B9A4200D07047034B69
:101D5C0001221A60FAE700BF002C01406C0200203F
:101D6C0008B5064B1A6802F1400324320021FEF735
:101D7C006FFB034B01221A6008BD00BF64020020F8
:101D8C006802002070B50446002383600160C360C4
:101D9C00064E3046FEF72EFB054D2870054B1C6099
:101DAC0002213046FEF709FC287870BDD00A0020CD
:101DBC00600200206402002000B58BB00120089066
:101DCC00002304930690079311F1020F1ADB05937D
:101DDC00994207DD13885B01009381420CDD538827
:101DEC005B010193022907DD93885B0102930329B0
:101DFC0002DDD3885B01039369460448FEF774FA4D
:101E0C00034B18700BB05DF804FB00BFD00A002028
:101E1C006002002010B50446FEF772F94FF0FF3354
:101E2C00C2B221460148FFF7A2FB10BDF80A002000
:101E3C0000B9704708B50448FFF7ECFF4FF47A700F
:101E4C00FEF74CFDFAE700BF9C600008BFF34F8F14
:101E5C000549CA6802F4E062044B1343CB60BFF33C
:101E6C004F8F00BFFDE700BF00ED00E00400FA0556
:101E7C0038B50446122201F079FE054608B1284611
:101E8C0038BDD4F80C14204602F033FA054600286D
:101E9C00F5D0204602F019FAF1E7000008B501224E
:101EAC000349044801F032FE00B908BDFFF7CEFF2C
:101EBC00BC600008A006002072B6FEE710B590B01A
:101ECC0006AC28220021204603F048FB0023019396
:101EDC000293039304930593012306934FF48033E9
:101EEC0007932046FEF724FD68B90F2301930123C5
:101EFC000293002103910491059101A8FEF74AFF7A
:101F0C0018B910B010BDFFF7D7FFFFF7D5FF08B514
:101F1C00FEF7C0FCFFF7D2FF00F00EF800F048F817
:101F2C0000F0A8F800F074F900F0E4F903F016F8EA
:101F3C00FFF79AFDFEE7000030B589B004AC002332
:101F4C00049305930693079303F1804303F504333D
:101F5C009A6942F010029A619A6902F01002019299
:101F6C00019A9A6942F020029A619A6902F0200261
:101F7C000292029A9A6942F004029A619B6903F0F8
:101F8C0004030393039B094D012210212846FFF7FC
:101F9C00E7F8102304930123059306930223079378
:101FAC0021462846FEF7D2FF09B030BD000801409B
:101FBC0008B50D480D4B036001234360002383607B
:101FCC00C3604FF4402202614FF4801242610376E9
:101FDC0043768376C37603774377FEF7DFF800B951
:101FEC0008BDFFF769FFFBE7D00A00200064004042
:101FFC0030B587B0002302930393049305930268D2
:10200C001A4B9A4201D007B030BD03F5D633DA69CA
:10201C0042F00072DA61DA6902F000720092009A02
:10202C009A6942F004029A619B6903F004030193DC
:10203C00019B4FF40063029302AD0D4C29462046E0
:10204C00FEF784FF4FF48053029302230393032380
:10205C00059329462046FEF779FF002211461420ED
:10206C00FFF738F91420FFF745F9CCE7006400407E
:10207C000008014008B50A480A4B03604FF4E133ED
:10208C00436000238360C36003610C22426183615F
:10209C00C361FFF73CFA00B908BDFFF70DFFFBE782
:1020AC00F80A00200038014070B586B00023029376
:1020BC0003930493059302681C4B9A4201D006B01B
:1020CC0070BD03F558439A6942F480429A619A694B
:1020DC0002F480420092009A9A6942F004029A61DA
:1020EC009B6903F004030193019B4FF4007302936B
:1020FC00022303930323059302AE0D4D314628466C
:10210C00FEF724FF4FF4806302930024039404949D
:10211C0031462846FEF71AFF224621462520FFF7B6
:10212C00D9F82520FFF7E6F8C9E700BF00380140D1
:10213C0000080140084B1B7823B1074A1378013B78
:10214C00DBB21370054B1B7823B1044A1378013BA7
:10215C00DBB21370704700BF410B0020400B002016
:10216C00FEE7FEE7FEE7FEE7FEE7704770477047C5
:10217C0008B5084A13780133DBB213701378092BB6
:10218C0002D8FEF799FB08BD134600221A70FFF720
:10219C00D1FFF6E7420B002008B50248FEF72BFAF8
:1021AC0008BD00BFD00A002008B5024802F0ADFF00
:1021BC0008BD00BFD40B002008B50248FFF7C6FAD3
:1021CC0008BD00BFF80A002082B00E4B9A6942F09D
:1021DC0001029A619A6902F001020092009ADA698E
:1021EC0042F08052DA61DB6903F080530193019B6A
:1021FC00054A536823F0E06343F00073536002B068
:10220C00704700BF00100240000001407047000002
:10221C0008B50E480E4B03604FF4827343600023E5
:10222C008360C360036143614FF4007282613022AA
:10223C00C2610362436283620A23C36200F0F0F856
:10224C0000B908BDFFF738FEFBE700BF440B0020C8
:10225C000030014030B587B0002302930393049300
:10226C0005930268174B9A4201D007B030BD03F5B5
:10227C0060439A6942F480529A619A6902F48052DE
:10228C000092009A9A6942F004029A619B6903F0E9
:10229C0004030193019BA0230293022303930323C2
:1022AC00059302AD084C29462046FEF74FFE40230D
:1022BC00029300230393049329462046FEF746FE1F
:1022CC00D3E700BF003001400008014008B502F020
:1022DC000BFC08BD08B502F0C9FC08BD08B502F03E
:1022EC00CFFC08BD08B502F017FD08BD08B502F01B
:1022FC0075FD08BD08B50349034802F0AFFA034B5E
:10230C00187008BD9C0B00200C000020A00B0020B6
:10231C00002070472DE9F04782B0054688461746E5
:10232C001E46FEF7D5FA0A9B1B1A03EB0609FEF7AD
:10233C00CFFA8246284B1B68C3F3CB3309FB03F35C
:10234C0001932B689C6838EA04040CBF012300231A
:10235C00BB423DD0B6F1FF3FF3D0FEF7B9FAA0EB8C
:10236C000A00484507D2019A02B14A46019B013B3B
:10237C0001939146E5E72A68536823F0E003536024
:10238C006B68B3F5827F0BD0AB6AB3F5005F14D0EA
:10239C00012385F85130002385F85030032018E0D4
:1023AC00AB68B3F5004F02D0B3F5806FECD12A685F
:1023BC00136823F040031360E6E72A68136823F4DC
:1023CC00005313602A68136843F400531360DFE76B
:1023DC00002002B0BDE8F0870800002070B582B084
:1023EC0006460C46154600920B4601220221FFF7C9
:1023FC0091FF48B900952346002280213046FFF713
:10240C0089FF38B902B070BD736D43F0200373655A
:10241C000320F7E7736D43F0200373650320F1E7A6
:10242C00002856D010B50446436A33B94368B3F557
:10243C00827F05D00023C36102E000230361436166
:10244C000023A36294F85130002B3CD0022384F873
:10245C0051302268136823F040031360636803F45F
:10246C008273A26802F404421343E26802F400622D
:10247C001343226902F002021343626902F0010263
:10248C001343A26902F400721343E26902F03802AA
:10249C001343226A02F080021343A26A02F4005230
:1024AC00216813430B60638B226803F004035360B1
:1024BC002268D36923F40063D36100206065012393
:1024CC0084F8513010BD84F850302046FFF7C2FE1E
:1024DC00BCE7012070472DE9F04383B004468946E0
:1024EC0090461D46FEF7F4F994F85130012B40F05C
:1024FC00CD800646DFB2B9F1000F00F0C880B8F10C
:10250C00000F00F0C48094F85030012B00F0C38011
:10251C00012384F85030032384F851300023636581
:10252C00C4F83090A4F83480A4F83680A363A38751
:10253C00E38763642364A368B3F5004F1ED023685C
:10254C001A6812F0400F03D11A6842F040021A6068
:10255C00E368B3F5006F1CD0636813B1B8F1010FD9
:10256C005FD1226B236812781A73236B01332363B8
:10257C00E38E9BB2013B9BB2E38652E02268136868
:10258C0023F0400313602268136843F48043136004
:10259C00D5E7636813B1B8F1010F15D1226B23682D
:1025AC001288DA60236B02332363E38E9BB2013B08
:1025BC009BB2E38608E0FEF78BF9801BA84202D39E
:1025CC00B5F1FF3F15D1A5B1E38E9BB2002B42D0E4
:1025DC0023689A6812F0020FEDD0226B1288DA6031
:1025EC00236B02332363E38E9BB2013B9BB2E386E6
:1025FC00EAE7012384F85130002384F85030032794
:10260C0045E0226B12781A73236B01332363B4F801
:10261C0036C01FFA8CFC0CF1FF3C1FFA8CFCA4F8A2
:10262C0036C0E38E9BB2B3B123689A6812F0020FE6
:10263C00E7D1FEF74DF9801BA84202D3B5F1FF3F5D
:10264C0001D1002DEDD1012384F85130002384F801
:10265C00503003271BE0324629462046FFF7BEFECA
:10266C0008B120236365A36833B901932368DA6842
:10267C0001929B680193019B012384F85130002344
:10268C0084F85030636D13B9002700E002273846F8
:10269C0003B0BDE8F0830227F9E72DE9F04383B0DE
:1026AC000446884691461F460A9DFEF711F90646D8
:1026BC0094F851306268012B0BD0D9B2B2F5827FFD
:1026CC0040F00481A368002B40F00481042940F001
:1026DC000381B8F1000F00F00181B9F1000F00F097
:1026EC00FF80002F00F0FE8094F85030012B00F09A
:1026FC00FB80012384F8503094F85130042B02D025
:10270C00052384F8513000236365C4F83890E787BB
:10271C00A787C4F83080E786A786236463642368A0
:10272C001A6812F0400F03D11A6842F040021A6086
:10273C00E368B3F5006F11D063680BB1012F0BD1B7
:10274C00226B236812781A73236B01332363E38E95
:10275C009BB2013B9BB2E386012771E063680BB12E
:10276C00012F0BD1226B23681288DA60236B0233A2
:10277C002363E38E9BB2013B9BB2E38601271BE0F4
:10278C0023689A6812F0010F0ED0E28F92B25AB100
:10279C00DA68A36B1A80A36B0233A363E38F9BB23B
:1027AC00013B9BB2E3870127FEF792F8801BA842FE
:1027BC0002D3B5F1FF3F1ED1E38E9BB21BB9E38F61
:1027CC009BB2002B62D023689A6812F0020FD7D00C
:1027DC00E28E92B2002AD3D0002FD1D0226B128875
:1027EC00DA60236B02332363E38E9BB2013B9BB213
:1027FC00E3860027C4E7012384F85130002384F8D2
:10280C005030032063E023689A6812F0010F0ED059
:10281C00E28F92B25AB1DA68A36B1A70A36B0133D0
:10282C00A363E38F9BB2013B9BB2E3870127FEF7C7
:10283C004FF8831BAB4202D3B5F1FF3F1ED1EDB174
:10284C00E38E9BB213B9E38F9BB2FBB123689A68FA
:10285C0012F0020FD7D0E28E92B2002AD3D0002F02
:10286C00D1D0226B12781A73236B01332363E38E5E
:10287C009BB2013B9BB2E3860027C4E7012384F89B
:10288C005130002384F85030032020E03246294692
:10289C002046FFF7A3FD90B9A36833B901932368D1
:1028AC00DA6801929B680193019B012384F85130F3
:1028BC00002384F85030636D4BB1012007E02023D6
:1028CC006365002384F85030012000E0022003B03F
:1028DC00BDE8F0830220FAE70220F8E70120F6E7D2
:1028EC000120F4E70120F2E70220F0E708B5044BE1
:1028FC0003EB8002526852680344187A904708BD73
:10290C00C40B002008B5084B1B5C53B9064B0122C5
:10291C001A5403EB8002526812680344187A9047E9
:10292C0008BD0020FCE700BFC40B002038B5044CE8
:10293C0004EB80056D68AD680444207AA84738BD67
:10294C00C40B002038B5044C04EB80056D68ED68B1
:10295C000444207AA84738BDC40B002010B5044BA2
:10296C0003EB8004646824690344187AA04710BD03
:10297C00C40B002004E011F8012B00F8012B1A46BF
:10298C00531E002AF7D1704702E000F8011B1A46CB
:10299C00531E002AF9D1704710B403460020144688
:1029AC00013A34B113F8010B11F801CBB0EB0C0068
:1029BC00F5D010BC7047034600E00133187808B11D
:1029CC008842FAD17047000030B400252B4601E054
:1029DC0001250133012B1ED803EB43021C4C54F888
:1029EC002220002AF4D0D0F80044A242F1D103EB0B
:1029FC004304174A02EB84025468D0F8082494422A
:102A0C00E7D103EB4304124A02EB84021489B0F8B9
:102A1C0006249442DDD1022B0CD0B1B903EB430355
:102A2C000B4A02EB83035B89B3F5807F0BD000204C
:102A3C0030BC70472DB9022901D01220F8E70020D4
:102A4C00F6E70020F4E71020F2E71020F0E700BFD3
:102A5C00A40B0020002000E00130012806D800EB78
:102A6C0040029300034AD358002BF5D1023818BF0B
:102A7C0001207047A40B002010B5002300E00133A7
:102A8C00012B1CD803EB43022D4C54F82240D0F8F8
:102A9C0000249442F3D103EB4304294A02EB840251
:102AAC005468D0F808249442E9D103EB4304244A37
:102ABC0002EB84021489B0F806249442DFD1022B75
:102ACC000AD041B303EB43011D4A02EB8102528948
:102ADC009ABB4FF4807226E00023012B07D803EB3E
:102AEC004302174C54F822200AB10133F5E7022BAC
:102AFC0021D0134C03EB430C04EB8C02D0F800E414
:102B0C0044F82CE0D0F808445460B0F80604108166
:102B1C0000205081D5E703EB4301094A02EB810207
:102B2C005289013292B203EB4300054901EB80015B
:102B3C004A81581C10BD0020FCE70020FAE700BFBA
:102B4C00A40B0020013801281BD800EB40020F4BCE
:102B5C0003EB82035B89B3F5807F03D053B1013B58
:102B6C009BB200E0002300EB4001084A02EB81021B
:102B7C00538143B900EB400083000020034AD0503E
:102B8C007047022070470020704700BFA40B002044
:102B9C00002302E010BC70470133012B17D803EB64
:102BAC0043020B4951F822208242F5D110B403EBB9
:102BBC004302920000248C500133012BEAD803EB22
:102BCC004302034951F822208242F5D1EFE77047C6
:102BDC00A40B0020D0F824340433D0F80024B2F82D
:102BEC000A04B1FBF0F192F80224B1FBF2F101E01E
:102BFC00091A0833186818B18142F9D25868084488
:102C0C0070470246C87E8B7E43EA002092F800345F
:102C1C00032B00D070474A7D0B7D43EA022340EA28
:102C2C000340F7E78176C1F30723C376C1F307436B
:102C3C000375090E417570472DE9F84F89460C68EC
:102C4C0000E0013423782F2BFBD05C2BF9D0D0F88B
:102C5C0018A40B2220215046FFF796FE002633467F
:102C6C004FF00808374619E0BF00FFB246464FF058
:102C7C000B0812E015F0800F25D129463148FFF7DB
:102C8C009AFE00285AD1A5F14103DBB2192B20D8AA
:102C9C0047F002070AF8065001365B4603F1010BB8
:102CAC00E55C202D1FD92F2D1DD05C2D1BD02E2D7A
:102CBC0001D0B045DED8B8F1080F3DD12E2DD3D0C0
:102CCC000620BDE8F88F47F00307803D1E4B5D5D85
:102CDC00D3E7A5F16103DBB2192BDBD847F0010771
:102CEC00203DEDB2D6E75C44C9F80040202D14D845
:102CFC0004232EB39AF80020E52A10D0B8F1080F5F
:102D0C0011D007F00302012A10D007F00C07042F92
:102D1C000FD08AF80B300020D3E70023E9E7052217
:102D2C008AF80020EAE7BF00FFB2EEE743F0100399
:102D3C00EBE743F00803ECE70620C2E70620C0E708
:102D4C000620BEE7C0600008E86000080146006885
:102D5C0038B102461378202B06D93A2B04D0013215
:102D6C00F8E74FF0FF3070473A2B01D00020704746
:102D7C00034613F8010B3038092808D89A4202D0C0
:102D8C004FF0FF30704728B901320A6070474FF09E
:102D9C00FF3070474FF0FF307047F8B590F804548F
:102DAC000DB92846F8BD0446D0F82C7401233A46D8
:102DBC00014690F80104FFF7C5FD0546D0B9002384
:102DCC0084F80434D4F82034FB1AD4F81824934231
:102DDC00E7D294F803640AE0D4F818341F440123B2
:102DEC003A46214694F80104FFF7ACFD013E012E52
:102DFC00F2D8D6E70125D4E770B5D0F82C348B4245
:102E0C0002D10026304670BD04460D46FFF7C5FFC3
:102E1C0006460028F6D101232A46214694F80104DF
:102E2C00FFF784FD10B101264FF0FF35C4F82C5488
:102E3C00E8E7000010B50446002380F804344FF096
:102E4C00FF33C0F82C34FFF7D7FF98BB024694F839
:102E5C00FF1194F8FE3143EA01231BB217498B4250
:102E6C002AD194F8391094F838301B0443EA0163E2
:102E7C0094F8371043EA012394F836100B4323F0EF
:102E8C007F430F498B4213D094F8551094F854306B
:102E9C001B0443EA016394F8531043EA012394F8AA
:102EAC0052100B4323F07F4305498B4200D0012283
:102EBC00104610BD0322FBE70222F9E755AAFFFFDB
:102ECC0046415400B0B108B5D0F8003443B193F882
:102EDC00001429B1B3F80614B0F80424914201D0BF
:102EEC00092008BD93F80104FFF700FD10F0010064
:102EFC00F7D0F5E7092070472DE9F04385B0064679
:102F0C001746002303600846FFF720FF041EC0F29B
:102F1C00B681AB4B53F82450002D00F0B5813560D1
:102F2C0095F800347BB195F80104FFF7DFFC10F045
:102F3C00010608D1002F00F0A38110F0040F00F05F
:102F4C009F810A269CE1002385F80034E0B285F8C5
:102F5C000104FFF7D7FC10F0010F40F097811FB16F
:102F6C0010F0040F40F0948105F20A42022195F80A
:102F7C000104FFF7F3FC002840F08C81B5F80A340B
:102F8C00B3F5007FC0F08881B3F5806F01D90126BD
:102F9C0076E100212846FFF74DFF0646012800F098
:102FAC009E800027032E00F07981002E40F078815E
:102FBC002A7BEB7A43EA02231BB2B5F80A04B5F973
:102FCC000A24934240F06E81EA7DAB7D53EA0223E2
:102FDC000DD195F8272095F826301B0443EA02639F
:102FEC0095F8252043EA022395F824201343C5F8CD
:102FFC001834297C85F803144A1ED2B2012A00F237
:10300C00538103FB01F16C7B85F80244002C00F02A
:10301C004D81621E144240F04B81AA7C95F811C080
:10302C004CEA022CA5F808C44FEA501EBCFBFEF279
:10303C000EFB12C292B2002A40F03C8195F814802B
:10304C00EA7C52EA08220ED195F8238095F82220CA
:10305C00120442EA086295F8218042EA082295F8A7
:10306C00208042EA080295F80F9095F80E8058EAF5
:10307C00092800F0218108EB0109BCFBFEFECE44BF
:10308C007245C0F01B81A2EB0E02B2FBF4F9A24216
:10309C00C0F0168140F6F572914539D94FF6F572AC
:1030AC00914572D8022434E0002304AA02EB810279
:1030BC0042F8103C0131032913D80B0103F5DF73DF
:1030CC002B441A79002AEFD0D87A9A7A120442EA61
:1030DC000062587A42EA00221B7A1343E5E700218A
:1030EC00E9E700240BE039462846FFF7A3FE064625
:1030FC0000283FF457AF0134032C3FF653AF04AB19
:10310C0003EB840353F8107C002FECD10226F2E77A
:10311C00012409F10202C5F81424C5F81C74B84442
:10312C00C5F82084BE44C5F828E4032C2FD0BCF18C
:10313C00000F00F0C9804144C5F82414022C3DD086
:10314C0002EB420102F0010202EB51020244013A8D
:10315C00B2FBF0F29A4200F2B9804FF0FF33C5F89F
:10316C001034C5F80C34802385F80534032C2BD08F
:10317C0085F80044134A138801339BB21380A5F8D9
:10318C0006342846FFF704FD7AE00324C1E7BCF1BE
:10319C00000F40F0978095F82FC095F82E10090479
:1031AC0041EA0C6195F82DC041EA0C2195F82CC030
:1031BC0041EA0C01C5F824149200C7E75200C5E798
:1031CC00C00B0020BC0B002095F8312095F8303056
:1031DC0043EA02231BB2012BCAD1791C2846FFF704
:1031EC000BFE0028C4D1002385F8053495F8FF2187
:1031FC0095F8FE3143EA02231BB2354A9342B7D10C
:10320C00EA78AB781B0443EA02636A7843EA022348
:10321C002A7813432F4A9342AAD195F8E72195F8BF
:10322C00E6311B0443EA026395F8E52143EA0223E5
:10323C0095F8E4211343284A934299D195F8EB2150
:10324C0095F8EA311B0443EA026395F8E92143EA55
:10325C00022395F8E8211343C5F8103495F8EF21B3
:10326C0095F8EE311B0443EA026395F8ED2143EA2D
:10327C00022395F8EC211343C5F80C3478E70B26A0
:10328C00304605B0BDE8F0830C26F9E70326F7E7D6
:10329C000A26F5E70126F3E70126F1E70126EFE719
:1032AC000D26EDE70D26EBE70D26E9E70D26E7E702
:1032BC000D26E5E70D26E3E70D26E1E70D26DFE712
:1032CC000D26DDE70D26DBE70D26D9E70D26D7E722
:1032DC0055AAFFFF525261417272416138B50446E2
:1032EC00FFF75BFD054658B994F80034032B09D061
:1032FC000022114694F80104FFF730FB00B10125C0
:10330C00284638BD94F80534012BF1D1B4F80A24C1
:10331C0000212046FFF738FB552384F8FE31AA2301
:10332C0084F8FF315223237063706123A370412210
:10333C00E270722184F8E41184F8E51184F8E62136
:10334C0084F8E731D4F8103484F8E831C3F3072259
:10335C0084F8E921C3F3074284F8EA211B0E84F8B0
:10336C00EB31D4F80C3484F8EC31C3F3072284F835
:10337C00ED21C3F3074284F8EE211B0E84F8EF31E4
:10338C00D4F81C240132C4F82C240123214694F8CF
:10339C000104FFF7D7FA002384F80534A8E70239B3
:1033AC00D0F81434023B8B4206D990F80234D0F892
:1033BC00280401FB0300704700207047012978D9CD
:1033CC00F8B505460C46D0F814348B4273D990F8F6
:1033DC000034022B35D0032B4BD0012B6DD101EBDC
:1033EC005106D0F82014B0F80A34B6FBF3F31944A4
:1033FC00FFF702FD10B14FF0FF305DE0771CB5F820
:10340C000A34B6FBF3F203FB1266AE5DD5F820145A
:10341C00B7FBF3F319442846FFF7EEFC00284ED116
:10342C00B5F80A34B7FBF3F203FB1277EB5D46EA0F
:10343C00032014F0010F01D000093DE0C0F30B0094
:10344C003AE0D0F82014B0F80A345B08B4FBF3F37C
:10345C001944FFF7D1FCA8BB6400B5F80A34B4FBDF
:10346C00F3F203FB12442B195B78285D40EA03202E
:10347C0022E0D0F82014B0F80A349B08B4FBF3F324
:10348C001944FFF7B9FC00BBA400B5F80A34B4FB2F
:10349C00F3F203FB12442B19DA789878000440EA13
:1034AC0002605B7840EA03202B5D184320F07040EB
:1034BC0002E0012070470120F8BD0120FCE74FF02D
:1034CC00FF30F9E74FF0FF30F6E74FF0FF30F3E74E
:1034DC00F8B50746A0F80614D0F80844012C52D0D1
:1034EC000E46D0F80034D3F81424A2424DD944BB74
:1034FC0093F80024032A21D01CBBB3F80824B24251
:10350C0045D9D3F82404C7F80C44002847D0D7F881
:10351C000024B2F80A345B09B6FBF3F30344C7F892
:10352C001034B2F80A345B09B6FBF3F103FB1161FA
:10353C0002EB4112C7F814240020F8BDD3F8244440
:10354C00DAE7B3F80A546D0993F8023403FB05F576
:10355C00AE4212D32146D7F80004FFF72FFF0446E2
:10356C00B0F1FF3F15D0012815D9D7F80034D3F8A6
:10357C001434834211D9761BEAE72146D7F80004AC
:10358C00FFF70DFFBFE70220D7E70220D5E70220A7
:10359C00D3E70120D1E70220CFE70220CDE70220BC
:1035AC00CBE7012940F29B802DE9F04105460C4602
:1035BC001646D0F814348B4240F2938090F80034C5
:1035CC00022B49D0032B62D0012B40F08D8001EBF4
:1035DC005107D0F82014B0F80A34B7FBF3F31944B0
:1035EC00FFF70AFC00287DD107F10108B5F80A3471
:1035FC00B7FBF3F203FB127714F0010422D0EA5D5F
:10360C0002F00F0242EA0612D2B2EA55012285F804
:10361C000424D5F82014B8FBF3F319442846FFF71B
:10362C00EBFB00285ED1B5F80A34B8FBF3F203FBD0
:10363C0012884CB1C6F3071305F80830012385F83E
:10364C0004344FE0F2B2E0E715F80830C6F3032279
:10365C0023F00F031343EFE7D0F82014B0F80A342B
:10366C005B08B4FBF3F31944FFF7C6FBD0BB640053
:10367C00B5F80A34B4FBF3F203FB12442B192E55A4
:10368C00C6F307225A70012385F804342AE0D0F8D7
:10369C002014B0F80A349B08B4FBF3F31944FFF779
:1036AC00ABFBF8B9A400B5F80A34B4FBF3F203FB96
:1036BC0012442919CA788B781B0443EA026303F07D
:1036CC00704333432E55C6F307224A70C6F30742A4
:1036DC008A701B0ECB70012385F8043402E00220A3
:1036EC0070470220BDE8F0810220FBE7F8B50546E3
:1036FC000F4641B9D0F80C649EB1D0F81434B342E3
:10370C0010D801260EE0FFF759FE034601284BD9CD
:10371C00B0F1FF3F4DD0D5F81424824249D83E4633
:10372C0000E0012634460CE021462846FFF746FE11
:10373C00034678B1B0F1FF3F3BD0012839D0B442F9
:10374C0036D00134D5F81434A342EDD8012E2DD93E
:10375C000224E9E76FF0704221462846FFF721FF6B
:10376C000346D0B997B9C3B9C5F80C44D5F8103491
:10377C00B3F1FF3F1FD0013BC5F8103495F8053469
:10378C0043F0010385F80534234612E022463946FE
:10379C002846FFF706FF0346E5E7012B01D001237E
:1037AC0007E04FF0FF3304E0012302E0002300E0C8
:1037BC0000231846F8BD2346FBE72DE9F843B0F883
:1037CC000664751CABB2002B00F0938004460F46C8
:1037DC00D0F81024002A00F08E80D0F80004B0F845
:1037EC000A345B09B5FBF3F103FB11534BB90132FE
:1037FC00C4F81024D4F80C14B1B9B0F80834AB42A6
:10380C007BD90136A4F80664D4F80034B3F80A2442
:10381C005209B5FBF2F102FB115503EB4513C4F849
:10382C0014340020BDE8F883B0F80A345B09B5FB0A
:10383C00F3F390F80224013A13EA0208E1D1FFF7FE
:10384C00BDFD814601285AD9B0F1FF3F59D0D4F8BB
:10385C000004D0F814344B4541D8002F53D0D4F881
:10386C000C14FFF743FF814600284ED001284ED0A0
:10387C00B0F1FF3F4DD0D4F80004FFF78EFA08B139
:10388C000120CFE7D4F80004B0F80A240021FFF798
:10389C007BF8D4F8007449463846FFF780FDC7F82A
:1038AC002C04D4F8003493F80224424511D9012297
:1038BC0083F80424D4F80004FFF76FFA58BBD4F84B
:1038CC000024D2F82C340133C2F82C3408F101084E
:1038DC00E7E7D3F82C24A2EB0802C3F82C24C4F895
:1038EC000C944946D4F80004FFF759FDC4F81004B1
:1038FC0087E7042096E7042094E7042092E702204F
:10390C0090E701208EE704208CE707208AE702204D
:10391C0088E7012086E7012084E738B504460021BA
:10392C00FFF7D6FD054640B1284638BD002120469C
:10393C00FFF743FF05460028F6D1D4F81014D4F84D
:10394C000004FFF759FA05460028EDD1D4F8140409
:10395C0003785BB1C37A13F0080FE7D10B22D4F8CC
:10396C001814FFF719F80028E0D1DDE70425DBE790
:10397C0010B582B0044601910B782F2B01D05C2B33
:10398C0001D1013101910023C4F80834019B1B784B
:10399C001F2B1DD901A92046FFF74EF90346F8B994
:1039AC002046FFF7BAFFD4F81834DA7A0346D0B9B8
:1039BC0012F0040F14D1D4F81414CB7A13F0100FA6
:1039CC0018D0D4F80004FFF71CF9C4F80804E1E798
:1039DC0000212046FFF77CFD03460022C4F8142486
:1039EC00184602B010BD0428FAD112F0040FF7D11A
:1039FC000523F5E70523F3E770B504460E460021D1
:103A0C00FFF766FD0246D8B9002508E00135B5423E
:103A1C0016D001212046FFF7D0FE024680B9D4F81B
:103A2C001014D4F80004FFF7E7F9024640B9D4F8B3
:103A3C0014341B78E52BE9D0002BE7D00025E8E700
:103A4C00042A01D0104670BD0722FBE738B50446A6
:103A5C000121FFF7D1FF054608B1284638BDD4F83F
:103A6C001014D4F80004FFF7C7F905460028F4D168
:103A7C0020220021D4F81404FEF786FF0B22D4F880
:103A8C001814D4F81404FEF775FFD4F8003401228E
:103A9C0083F80424E1E7F8B501292DD904460D4635
:103AAC00D0F814348B422AD9002700E03546D4F8DC
:103ABC001434AB4221D929462046FFF77FFC064639
:103ACC00D8B101281DD0B0F1FF3F1CD000222946EF
:103ADC002046FFF766FD074678B9D4F81034B3F1E9
:103AEC00FF3FE3D00133C4F8103494F8053443F0AD
:103AFC00010384F80534D9E702273846F8BD0227BC
:103B0C00FBE70227F9E70127F7E7000070B584B05F
:103B1C00019000911646039103A8FFF717F9041EB4
:103B2C001DDB114B53F824502DB12846FFF730F80C
:103B3C00002385F80034019B13B1002283F8002484
:103B4C00094A42F8243063B1012E02D0002004B09F
:103B5C0070BD0022694601A8FFF7CEF9F7E70B20EC
:103B6C00F5E70020F3E700BFC00B00202DE9F0477C
:103B7C00ADF5876D0191002800F0E38014460646F0
:103B8C000023C0F8003402F01F0802F01E073A466A
:103B9C0001A90DF58360FFF7AFF9054620B1284662
:103BAC000DF5876DBDE8F08706AD03ABCDF830346D
:103BBC0001992846FFF7DCFEDDF82C94054648B940
:103BCC00B9F1000F52D0391E18BF012106A8FEF71B
:103BDC00FBFE054614F01C0F5ED0002D52D0042DB8
:103BEC0046D048F00808DDF82C94002DD7D118F0F9
:103BFC00080F61D0FEF78CFB89F80E00C0F3072389
:103C0C0089F80F30C0F3074389F81030000E89F89B
:103C1C001100002489F80B4089F81C4089F81D40DC
:103C2C0089F81E4089F81F404946DDF81804FEF754
:103C3C00E8FF074621464846FEF7F4FFDDF8180476
:103C4C00012380F80434BFB3D0F82C443946FFF775
:103C5C0022FF05460028A2D1DDF81804013FC0F868
:103C6C000C742146FFF7C8F8054625E00625B1E798
:103C7C00FEF7F0FE08B91225B3E706A8FFF7E6FE3B
:103C8C000546AEE799F80B3013F0110F13D114F071
:103C9C00040FAAD0082582E7002D80D199F80B30AB
:103CAC0013F0100F4FD114F0020F05D013F0010FC9
:103CBC0002D0072573E70725002D7FF470AF18F0AD
:103CCC00080F01D048F0200806A8D0F80034D3F82B
:103CDC002C34C6F81C34C6F82094B8F1010F94BFEC
:103CEC0000210121FEF7C8FEC6F8280468B386F847
:103CFC000684002486F80744DDF8187449463846D3
:103D0C00FEF77FFFC6F8100499F81F2099F81E30B3
:103D1C001B0443EA026399F81D2043EA022399F835
:103D2C001C201343C6F80C34C6F80844C6F81844D3
:103D3C00C6F82444C6F80074B7F80634A6F8043460
:103D4C002DE709252BE7042529E7022527E72DE98F
:103D5C00F04F83B004460F46154698460023C8F82A
:103D6C000030FFF7AFF80190002840F0E58094F8A0
:103D7C0007340193002B40F0DF8094F8063413F0E5
:103D8C00010F00F0EB80D4F80C64D4F80834F61A68
:103D9C00AE42C0F083802E4680E0D4F824341BB1B0
:103DAC002046FEF717FF94E0D4F81414FFF706FB37
:103DBC008FE04FF0020A84F807A4CDF804A0BBE012
:103DCC004FF0010A84F807A4CDF804A0B4E04FF03A
:103DDC00020A84F807A4CDF804A0ADE094F80634E8
:103DEC0013F0400F05D0D4F81834A3EB0903534556
:103DFC0006D3D4F80034B3F80A540AFB05F541E0B5
:103E0C00D4F80024B2F80A24214602FB0370FEF712
:103E1C00B1FDEEE7D4F818244A451ED094F80634C8
:103E2C0013F0400F0ED0012321469BF80104FEF73E
:103E3C0089FD002840F0848094F8063423F0400378
:103E4C0084F80634D4F8000401234A46214690F83D
:103E5C000104FEF76BFD002879D1C4F81894D4F84E
:103E6C000034B3F80A54D4F80814B1FBF5F305FB8D
:103E7C0013116D1AAE4200D235462A4621443846FB
:103E8C00FEF778FD2F44D4F808342B44C4F80834DA
:103E9C00D8F800302B44C8F80030761B002E4BD0DD
:103EAC00D4F80814D4F80004B0F80A54B1FBF5F3B4
:103EBC0005FB1313002BD2D1B1FBF5F590F80234AE
:103ECC00013BDBB21D400DD100297FF466AFD4F865
:103EDC00100401287FF66DAFB0F1FF3F3FF470AFD7
:103EEC00C4F81404D4F800B4D4F814145846FFF7EA
:103EFC0056FA814600283FF46AAFA944BBF80A344D
:103F0C00B6FBF3FAB34285D805EB0A039BF80224FF
:103F1C00934201D9A2EB050A53464A4639469BF80F
:103F2C000104FEF703FD00283FF458AF4FF0010ADF
:103F3C0084F807A4CDF804A0019803B0BDE8F08F75
:103F4C004FF0010A84F807A4CDF804A0F4E74FF071
:103F5C00010A84F807A4CDF804A0EDE70723019328
:103F6C00EAE72DE9F04F83B004460F461546984614
:103F7C000023C8F80030FEF7A5FF0190002854D1AB
:103F8C0094F807340193002B4FD194F8063413F0B6
:103F9C00020F00F01181D4F80834EB42C0F0CB8052
:103FAC000025C8E0D4F82434002B42D02046FEF77C
:103FBC0011FE0346002B00F0F080012B3FD0B3F133
:103FCC00FF3F43D0C4F81434D4F810240AB9C4F811
:103FDC00103494F8063413F0400F3ED1D4F800B4EA
:103FEC00D4F814145846FFF7DAF9814600284DD05E
:103FFC00B144BBF80A34B5FBF3FAAB426AD806EB12
:10400C000A039BF80224934201D9A2EB060A5346F9
:10401C004A4639469BF80104FEF794FCE8B34FF08E
:10402C00010A84F807A4CDF804A0019803B0BDE8F8
:10403C00F08FD4F81414FFF759FB0346BAE74FF08E
:10404C00020A84F807A4CDF804A0EEE74FF0010AA9
:10405C0084F807A4CDF804A0E7E7D4F80004012302
:10406C00D4F81824214690F80104FEF76BFC30B903
:10407C0094F8063423F0400384F80634AEE74FF08E
:10408C00010A84F807A4CDF804A0CEE74FF0020A89
:10409C0084F807A4CDF804A0C7E7D4F81834A3EB30
:1040AC000903534506D3D4F80034B3F80A640AFB69
:1040BC0006F634E0D4F80024B2F80A2402FB0371AB
:1040CC002046FEF757FC94F8063423F0400384F89E
:1040DC000634E8E7D4F818344B4505D0D4F8082456
:1040EC00D4F80C349A4248D3C4F81894D4F8003459
:1040FC00B3F80A64D4F80804B0FBF6F306FB13001B
:10410C00361AB54200D22E46324639462044FEF7C6
:10411C0031FC94F8063443F0400384F806343744F9
:10412C00D4F808343344C4F80834D8F80030334495
:10413C00C8F80030AD1B85B3D4F80814D4F80004CB
:10414C00B0F80A64B1FBF6F306FB1313002BCDD1C8
:10415C00B1FBF6F690F80234013BDBB21E407FF463
:10416C0038AF00297FF41EAFD4F81034002B7FF445
:10417C0024AFFFF7BBFA03461CE701234A4621464E
:10418C009BF80104FEF7D2FB0028ADD04FF0010ADA
:10419C0084F807A4CDF804A047E7D4F80834D4F881
:1041AC000C24934201D9C4F80C3494F8063443F02F
:1041BC00200384F8063438E70723019335E770B5FC
:1041CC0082B004460D460A290DD06368002B08DB2B
:1041DC005E1C23441D733C2E09DC6660A36801330E
:1041EC00A36002B070BD0D21FFF7E9FFEDE721469A
:1041FC0051F80C0B01AB3246FFF7B3FE019B9E420C
:10420C0002D04FF0FF36E8E70026E6E738B5044663
:10421C00FEF758FE00BB94F8063413F0200F1BD0A9
:10422C0013F0400F11D0D4F800040123D4F8182453
:10423C00214690F80104FEF785FB002843D194F841
:10424C00063423F0400384F80634D4F81C14D4F854
:10425C000004FEF7D1FD00B138BDD4F82054EB7A40
:10426C0043F02003EB7294F80C342B77B4F80C3435
:10427C001B0A6B7794F80E34AB7794F80F34EB770A
:10428C00D4F810142846FEF7CDFCFEF741F8A875BB
:10429C00C0F30723EB75C0F307432B76000E68764B
:1042AC000023AB74EB7494F8063423F0200384F8E9
:1042BC000634D4F80034012283F80424D4F8000422
:1042CC00FFF70CF8C8E70120C6E710B50446FFF766
:1042DC009DFF00B110BD2046FEF7F4FD0028F9D17A
:1042EC00D4F82804FEF72EFC0028F3D1C4F80004FF
:1042FC00F0E72DE9F84F04460D46FEF7E3FD0646C0
:10430C00002840F0898194F80734002B40F0838119
:10431C00D4F82434002B00F0A080B5F1FF3F4ED030
:10432C00D4F80C74AF4200D32F46C4F80874002F95
:10433C0000F072817D1E29462046FEF74BFC01469B
:10434C00C4F81404D4F800844046FFF728F8002879
:10435C0077D0B8F80A34B5FBF3F598F80224013A93
:10436C0015400544B7FBF3F203FB1277002F00F066
:10437C005381D4F81824AA4200F04E8194F80634E4
:10438C0013F0400F0DD00123214698F80104FEF7DD
:10439C00D9FA002859D194F8063423F0400384F854
:1043AC000634D4F8000401232A46214690F801046F
:1043BC00FEF7BCFA00284CD1C4F818542CE19846EE
:1043CC0058F804BBD4F810A4BAF1000F2CD04FF05D
:1043DC00020909F102095146002701370D46D4F8AC
:1043EC000004FEF7EBFF0146012815D9B0F1FF3FA1
:1043FC0016D001358542F0D0CB4505D3434643F862
:10440C00087BC8F804A09846D4F80034D3F81434C8
:10441C008B420BD98A46DCE7022684F80764FBE062
:10442C00012684F80764F7E04FF00209D4F824342D
:10443C00C3F80090D94500F2F2800023C8F8003090
:10444C00EAE0022684F80764E6E0012684F80764B3
:10445C00E2E0012684F80764DEE0D4F80C34AB42C9
:10446C0005D294F8062412F0020F00D11D46D4F8A0
:10447C0008340022C4F808241DB3D4F8000490F8C2
:10448C000284B0F80A2402FB08F883B16A1EB2FB5E
:10449C00F8F2013BB3FBF8F18A4208D3C8F10002F1
:1044AC001340C4F80834EF1AD4F8145407E0D4F8C5
:1044BC001034002B44D0C4F814342F461D46002D64
:1044CC006CD1D4F80834D4F80004B0F80A24B3FB47
:1044DC00F2F102FB113323B3D4F81824AA4220D0F2
:1044EC0094F8063413F0400F0ED00123214690F8B7
:1044FC000104FEF727FA002840F0858094F8063472
:10450C0023F0400384F80634D4F8000401232A462F
:10451C00214690F80104FEF709FA002877D1C4F877
:10452C001854D4F80834D4F80C24934274D9C4F831
:10453C000C3494F8063443F0200384F806346BE012
:10454C000021FFF7D3F80346012805D0B0F1FF3F57
:10455C0006D0C4F81004AEE7022684F807645BE0CA
:10456C00012684F8076457E02946D4F80004FEF7C6
:10457C0025FF0546B5F1FF3F37D0012D39D9D4F8C9
:10458C000034D3F81434AB4233D9C4F81454D4F8EF
:10459C0008344344C4F80834A7EB080747450DD941
:1045AC0094F8063413F0020FDED02946D4F8000438
:1045BC00FFF79CF805460028DCD14746D4F80834B0
:1045CC003B44C4F80834D4F80004B0F80A84B7FBB0
:1045DC00F8F308FB1373A3B12946FEF7E0FE05467A
:1045EC0058B1B7FBF8F73D446BE7012684F8076434
:1045FC0012E0022684F807640EE0022684F80764B1
:10460C000AE01D465DE7012684F8076404E00126F4
:10461C0084F8076400E01E463046BDE8F88F11268A
:10462C00FAE72DE9F04FADF2444D03AD0390FDF7E1
:10463C006FFE0446012229460DF58460FEF75CFCF2
:10464C00054620B128460DF2444DBDE8F08F08A870
:10465C0005ABC0F818340399FFF78AF9002800F06D
:10466C00AB80042801D00546ECE70021DDF82004DE
:10467C00FFF73CF8064618B1012802D1022504E0E8
:10468C000725B6F1FF3F00F095802DB13146DDF8DE
:10469C002004FFF700FAD5E7DDF82004FEF77DFBD8
:1046AC0005460028F2D1DDF8208431464046FEF75D
:1046BC0076FE0746B8F80A2400214046FEF764F956
:1046CC000B2220214046FEF75FF94FF02E0A88F8A6
:1046DC0000A0102388F80B305FFA84FB88F816B022
:1046EC00C4F30723009388F81730C4F307430193EE
:1046FC0088F81830230E029388F81930314640465A
:10470C00FEF790FA08F12004202241462046FEF7DD
:10471C0031F988F821A0DDF82814DDF8203493F85D
:10472C000024032A20D02046FEF77CFADDF8203442
:10473C0093F80244F4B107F10109DDF82004C0F844
:10474C002C74012380F80434FEF727FB054688B946
:10475C00DDF82034B3F80A2400214046FEF714F9A2
:10476C00013CE4B24F46E5E7D3F824348B42DAD16E
:10477C000021D8E7002D89D108A8FFF767F9054675
:10478C00002883D1DDF834041023C37280F816B0EE
:10479C00009BC375019B0376029B43763146FEF763
:1047AC0041FADDF82004012380F80434FEF796FD6D
:1047BC00054647E7012569E7082543E710B594B09E
:1047CC000446019100230293039303E0013401A8F2
:1047DC00FFF7F5FC21780029F8D1029A002A0CDBAE
:1047EC006B4604A90198FFF7BCFB48B9029A009BE1
:1047FC009A4208D1039814B010BD4FF0FF30FAE77D
:10480C004FF0FF30F7E74FF0FF30F4E7124B5B7AD5
:10481C00012B01D90120704710B404460E4B93F8BC
:10482C0009C05FFA8CFC002003F80C0093F809C057
:10483C0003EB8C0CCCF804405C7A1C4422725A7A40
:10484C00541CE4B25C7230320A703A234B702F2342
:10485C008B70C87010BC7047C40B002008B50022C8
:10486C00FFF7D4FF08BD0000014B00221A707047FF
:10487C00D00B0020014B1878704700BFD00B0020E4
:10488C0008B50A46054B1B689B6813F0020FF9D05C
:10489C00642301460148FDF71EFE08BD440B0020B1
:1048AC0000B583B08DF80700074B1B689B6813F0AD
:1048BC00020FF9D0642301220DF107010248FDF724
:1048CC000AFE03B05DF804FB440B002008B500227F
:1048DC0010210348FCF744FC0120FBF7FFFF08BD47
:1048EC000008014008B5012210210348FCF738FCF0
:1048FC000120FBF7F3FF08BD0008014000B585B0AF
:10490C00FF238DF80F300A4B1B689B6813F0020FC6
:10491C00F9D06423009301230DF10E020DF10F0168
:10492C000348FDF7BAFE9DF80E0005B05DF804FBD8
:10493C00440B002010B582B0FFF7D4FF002403E035
:10494C00FF20FFF7ADFF0134092CF9DDFFF7BEFFA7
:10495C0040238DF8003000238DF801308DF80230A3
:10496C008DF803308DF8043095238DF80530062131
:10497C006846FFF785FF41F6FF74FFF7BFFF01287C
:10498C0002D00CB1013CF8E7FFF7ACFFFF20FFF7BA
:10499C0087FF024B01221A7002B010BDD00B002011
:1049AC0008B5074B4FF4FA721A80FFF7A7FFFF28E0
:1049BC0004D0034B1B889BB2002BF6D108BD00BF63
:1049CC00400B002038B505460C46FFF7E9FFFF28E1
:1049DC0001D0FF2038BD2846FFF762FF200EFFF7FD
:1049EC005FFFC4F30740FFF75BFFC4F30720FFF73B
:1049FC0057FFE0B2FFF754FF402D13D0482D0FD0D6
:104A0C000120FFF74DFF4C2D0ED00A24FFF776FF47
:104A1C0010F0800FDED0631E13F0FF04F6D1D9E73F
:104A2C008720EEE79520ECE7FFF768FFEDE710B580
:104A3C000446FFF763FF207010BD000038B5044634
:104A4C000D460F4BC8221A80FFF758FFFF2804D1E0
:104A5C000B4B1B889BB2002BF6D1FE280DD12046A8
:104A6C000134FFF7E4FF2B46013D002BF7D1FFF794
:104A7C0045FFFFF743FF012038BD0020FCE700BFD6
:104A8C00410B002070B506460D46FFF789FFFF2845
:104A9C0001D0002070BD00242846FFF701FFFD2D3A
:104AAC0005D104F01F04052C1CD00020F2E74FF4B4
:104ABC0000713046FFF7E4FEFFF720FFFFF71EFF03
:104ACC00254601E00135EDB2402D06D8FFF716FF63
:104ADC00044600F01F03052BF4D1FFF70FFF00284D
:104AEC00FBD0DEE70120D5E7002840F0B68030B5DA
:104AFC0083B05B4B1B7813F0020404D0584B18782E
:104B0C00C0B203B030BDFFF715FFFFF7DFFE002189
:104B1C004020FFF757FF0546012811D0514B1C7060
:104B2C00FFF7E0FEFFF7EAFE002C00F093804C4A02
:104B3C00137803F0FE031370494B1878C0B2E0E70A
:104B4C00494B4FF47A721A804FF4D5714820FFF715
:104B5C0039FF012845D1254608E0FFF7CFFE05F1C6
:104B6C0008036B4403F8040C0135EDB2032DF4D9A2
:104B7C009DF80630012BD1D19DF80730AA2BCDD151
:104B8C0003E0394B1B889BB263B100217720FFF700
:104B9C0019FF0128F5D84FF080416920FFF712FF6B
:104BAC000028EED1304B1B889BB2002BB6D00021D5
:104BBC007A20FFF707FF05460028AFD1032D09D84F
:104BCC00FFF79CFE05F108036B4403F8040C013558
:104BDC00EDB2F3E79DF8043013F0400F38D00C24FD
:104BEC009CE700217720FFF7EDFE012811D800216A
:104BFC006920FFF7E7FE01280BD8022509E0002108
:104C0C007720FFF7DFFE01281BD9174B1B889BB2BF
:104C1C003BB1022DF3D000214120FFF7D3FE002839
:104C2C00F3D1114B1B889BB2002B3FF477AF4FF4A1
:104C3C0000715020FFF7C6FE00287FF46FAF2C46A2
:104C4C006CE700216920FFF7BDFE0028DDD1E8E705
:104C5C00042463E7FFF708FE6EE70120704700BFEE
:104C6C0020000020D10B0020410B002018B9034B71
:104C7C001878C0B270470120704700BF2000002098
:104C8C0000283ED170B50D4616461C46002B3AD076
:104C9C001F4B1B7813F0010F37D11E4B1B7813F0F1
:104CAC00040F00D15602FFF711FE012C1AD0314629
:104CBC005220FFF787FE68B94FF400712846FFF7C2
:104CCC00BDFE18B105F50075013CF5D100214C2055
:104CDC00FFF778FEFFF706FEFFF710FE201E18BF49
:104CEC00012070BD31465120FFF76CFE0028F1D138
:104CFC004FF400712846FFF7A1FE0028EAD00024EB
:104D0C00E8E7042070470420EBE70320E9E700BF45
:104D1C0020000020D10B0020002852D170B50D4688
:104D2C0016461C46002B4ED02A4B1B7813F0010F55
:104D3C004BD1284B1B7813F0040F48D1264B1B7812
:104D4C0013F0040F00D15602FFF7C0FD012C1FD049
:104D5C00214B1B7813F0020F28D131465920FFF755
:104D6C0031FE68B9FC212846FFF78CFE18B105F519
:104D7C000075013CF6D1FD210020FFF783FEF0B158
:104D8C00FFF7B0FDFFF7BAFD201E18BF012070BD64
:104D9C0031465820FFF716FE0028F1D1FE21284697
:104DAC00FFF770FE0028EBD00024E9E70021772004
:104DBC00FFF708FE21465720FFF704FECDE701243C
:104DCC00DEE7042070470420E1E70320DFE7022040
:104DDC00DDE700BF20000020D10B0020F0B585B02E
:104DEC00002840F0B3800D4616460746052913D01F
:104DFC00594B1C7814F0010440F0AC80FFF766FDB1
:104E0C000D2D00F29780DFE805F05E1B5A95959505
:104E1C0095959595956473821478012C07D0022C86
:104E2C0009D0002C40F09480FFF71EFD87E0FFF7BF
:104E3C0081FD3C4683E0FFF71DFD70703C467EE033
:104E4C0000214920FFF7BEFD044608B12C4672E054
:104E5C0010216846FFF7F2FD002873D09DF8003052
:104E6C009B09012B1FD09DF8052002F00F029DF825
:104E7C000A3002EBD3129DF809305B0003F00603F5
:104E8C001A449DF808309DF807109B0903EB810329
:104E9C009DF80610890201F440610B440133073A76
:104EAC009340336047E09DF809309DF8082003EBF0
:104EBC0002239BB201339BB29B0233603BE04FF465
:104ECC000073338037E0FFF76BFDFF283CD00124E3
:104EDC0031E000214920FFF775FD044608B101249B
:104EEC0029E010213046FFF7A9FD20BB012422E068
:104EFC0000214A20FFF766FD044608B101241AE0A0
:104F0C0010213046FFF79AFDA8B9012413E00021C7
:104F1C007A20FFF757FD044608B104240BE0032C5C
:104F2C0006D8FFF7EBFC06F8010B0134E4B2F6E708
:104F3C00042400E00424FFF7D5FCFFF7DFFC204637
:104F4C0005B0F0BD2C46F6E72C46F4E70424F6E752
:104F5C000424F4E70324F2E72000002000B587B016
:104F6C000023029303930493059300930193164833
:104F7C00164A026040F21F324260836042F20F72A6
:104F8C00C26003614361836100F0B0F990B94FF4E2
:104F9C008053029302A90C4800F0E0F968B9002391
:104FAC00009301936946084800F058FA40B907B0DD
:104FBC005DF804FBFCF780FFE9E7FCF77DFFEEE70B
:104FCC00FCF77AFFF3E700BFD40B0020002C014064
:104FDC0002680E4B9A4200D0704700B583B003F5BF
:104FEC0064439A6942F400629A619B6903F400631A
:104FFC000193019B002211461920FCF76BF9192033
:10500C00FCF778F903B05DF804FB00BF002C0140FD
:10501C0010B4036A046A24F001040462846924F065
:10502C00F00C4CEA021223F00A030B438261036278
:10503C0010BC704710B4036A046A24F010040462B4
:10504C00846924F4704C4CEA023223F0A00343EA46
:10505C0001138261036210BC7047836823F07003F4
:10506C000B4343F0070383607047000090F83D301A
:10507C00012B27D1022380F83D300268D36843F01E
:10508C000103D3600368114A934210D0B3F1804FEF
:10509C000DD0A2F59432934209D002F5806293426E
:1050AC0005D01A6842F001021A60002070479A6815
:1050BC0002F00702062A07D01A6842F001021A60B1
:1050CC00002070470120704700207047002C0140E1
:1050DC000268D36823F00103D3600368196A41F2B4
:1050EC001112114208D1196A40F24442114203D103
:1050FC001A6822F001021A60012380F83D3000206A
:10510C007047704770477047704770B50446036826
:10511C00DE681D6915F0020F10D016F0020F0DD0CD
:10512C006FF002021A610123037703689B6913F085
:10513C00030F5ED0FFF7E6FF0023237715F0040F73
:10514C0012D016F0040F0FD023686FF004021A610E
:10515C000223237723689B6913F4407F4FD02046AA
:10516C00FFF7D0FF0023237715F0080F12D016F0AD
:10517C00080F0FD023686FF008021A6104232377FD
:10518C002368DB6913F0030F40D02046FFF7BAFF0A
:10519C000023237715F0100F12D016F0100F0FD03C
:1051AC0023686FF010021A61082323772368DB69E8
:1051BC0013F4407F31D02046FFF7A4FF0023237760
:1051CC0015F0010F02D016F0010F2DD115F0800F44
:1051DC0002D016F0800F2FD115F0400F02D016F030
:1051EC00400F31D115F0200F02D016F0200F33D123
:1051FC0070BDFFF786FF2046FFF785FF9CE7204632
:10520C00FFF77FFF2046FFF77EFFABE72046FFF757
:10521C0078FF2046FFF777FFBAE72046FFF771FFCC
:10522C002046FFF770FFC9E723686FF001021A618F
:10523C002046FCF787FDC9E723686FF080021A61EE
:10524C00204600F042F9C7E723686FF040021A616C
:10525C002046FFF759FFC5E723686FF020021A615B
:10526C00204600F031F9C3E703681F4A90420AD088
:10527C00B0F1804F07D0A2F59432904203D002F5E2
:10528C008062904203D123F070034A681343164A9C
:10529C0090420AD0B0F1804F07D0A2F594329042E0
:1052AC0003D002F58062904203D123F44073CA68A4
:1052BC00134323F080034A69134303608B68C36272
:1052CC000B688362084B98420AD00123436103693F
:1052DC0013F0010F03D0036923F00103036170473E
:1052EC000B690363F1E700BF002C014040B310B51C
:1052FC00044690F83D30F3B1022384F83D3021464A
:10530C0051F8040BFFF7B0FF012384F8463084F802
:10531C003E3084F83F3084F8403084F8413084F8D3
:10532C00423084F8433084F8443084F8453084F8B3
:10533C003D30002010BD80F83C30FFF749FEDBE724
:10534C000120704710B4846824F47F4C42EA032295
:10535C000A4342EA0C02826010BC704790F83C3061
:10536C00012B78D010B50446012380F83C30022381
:10537C0080F83D300268936823F47F4323F0770371
:10538C0093600B68602B4CD023D8402B54D011D891
:10539C00202B03D00AD80BB1102B05D1194620684D
:1053AC00FFF75BFE002028E0012026E0302BF5D033
:1053BC00012022E0502B0AD1CA6849680068FFF727
:1053CC0027FE50212068FFF748FE002015E0012041
:1053DC0013E0B3F5805F3AD0B3F5005F14D0702BB7
:1053EC0037D1CB684A6889680068FFF7ABFF226841
:1053FC00936843F0770393600020012384F83D30D9
:10540C00002384F83C3010BDCB684A68896800687A
:10541C00FFF798FF2268936843F480439360002061
:10542C00EBE7CA6849680068FFF704FE6021206852
:10543C00FFF713FE0020E0E7CA6849680068FFF731
:10544C00E7FD40212068FFF708FE0020D5E700208B
:10545C00D3E70120D1E702207047000090F83C20F0
:10546C00012A2CD010B40346012280F83C200222E1
:10547C0080F83D2002685068946820F0700C086831
:10548C0040EA0C0050601A680E4882420AD0B2F111
:10549C00804F07D0A0F59430824203D000F5806095
:1054AC00824204D124F08004496821439160012296
:1054BC0083F83D20002083F83C0010BC704702208C
:1054CC00704700BF002C014070477047FCF79EFEF0
:1054DC000B480C490C4A002302E0D458C450043346
:1054EC00C4188C42F9D3094A094C002301E013601B
:1054FC000432A242FBD300F04BF8FCF708FD7047D6
:10550C000000002074000020AC6100087400002032
:10551C00680D0020FEE700000EB46FF0004110B5DE
:10552C0000249DB01FAB029006900791049109488E
:10553C00094953F8042B0591006802A901931B94A7
:10554C0000F0A2F9029B1C701DB0BDE8104003B026
:10555C00704700BF240000200802FFFF03460244EE
:10556C00934200D1704703F8011BF9E710B56AB1FB
:10557C000139841810F8012B11F8013F9A4203D11C
:10558C00A04201D0002AF5D1D01A10BD1046FCE77C
:10559C0070B500260C4D0D4B5B1B9C10A64209D11F
:1055AC00002600F08BFC0A4D0A4B5B1B9C10A6429C
:1055BC0005D170BD55F8043B98470136EEE755F818
:1055CC00043B98470136F2E7A4610008A461000887
:1055DC00A4610008A86100087047704738B50546FB
:1055EC00002940D051F8043C0C1F002BB8BFE41824
:1055FC0000F0DEF81C4A136833B963601460284667
:10560C00BDE8384000F0DAB8A34208D92068211868
:10561C008B4201BF19685B6809182160EDE71A46D7
:10562C005B680BB1A342FAD911685018A0420BD198
:10563C0020680144501883421160E0D118685B68FF
:10564C00084410605360DAE702D90C232B60D6E7CC
:10565C00206821188B4201BF19685B68091821600A
:10566C0063605460CBE738BD600D002070B50F4E01
:10567C000C463168054611B900F0B0FB306021468C
:10568C00284600F0ABFB431C03D14FF0FF342046FF
:10569C0070BDC41C24F00304A042F8D0211A284683
:1056AC0000F09CFB0130F2D1EFE700BF5C0D002055
:1056BC002DE9F843CD1C25F0030508350C2D38BF1A
:1056CC000C25002D064601DBA94204D90C233360BE
:1056DC000020BDE8F883DFF8D48000F069F8D8F832
:1056EC0000301C4644BB29463046FFF7BFFF431C25
:1056FC00044658D1D8F800402746002F43D1002C3F
:10570C004BD023683946304604EB030900F066FBA6
:10571C00814542D1216830466D1A2946FFF7A6FF14
:10572C0001303AD023682B442360D8F800305A68F3
:10573C0062BBC8F800700FE02268521B20D40B2A01
:10574C0017D96119A342256018BF5960636808BF57
:10575C00C8F8001062514B60304600F02FF804F18D
:10576C000B00231D20F00700C21A1CBF1B1AA350EC
:10577C00AFE76268A3420CBFC8F800205A60EBE7A1
:10578C0023466468AEE73C467F68B6E71A465B681A
:10579C00A342FBD100235360DEE70C233046336079
:1057AC0000F00CF894E70560D6E700BF600D002010
:1057BC000148FFF711BF00BF580D00200148FFF74B
:1057CC000CBF00BF580D00202DE9F0471F468E6816
:1057DC008246BE420C469046334653D8B1F90C0073
:1057EC0010F4906F2BD065692368096905EB4505AA
:1057FC00A3EB010905EBD5757B1C6D104B44AB423B
:10580C002A4684BF1D462A46430527D511465046D5
:10581C00FFF74EFF064658B34A46216900F0FCFAE2
:10582C00A38923F4906343F08003A38126614E4443
:10583C0026603B463E466561A5EB0905A5601F4603
:10584C003A464146206800F0AFFA0020A3689B1B43
:10585C00A36023683B442360BDE8F087504600F00A
:10586C00E9FA06460028E1D150462169FFF7B6FE59
:10587C000C23CAF80030A3894FF0FF3043F04003EB
:10588C00A381E9E73E46DBE72DE9F0471F468B890C
:10589C0006461B060D4614469CB010D50B6973B911
:1058AC004021FFF705FF2860286130B90C233360D5
:1058BC004FF0FF301CB0BDE8F08740236B61002334
:1058CC00099320238DF8293030234FF001080397DA
:1058DC00644F8DF82A302346994613F8012B0AB1F0
:1058EC00252AF9D1B9EB040A0BD053462246294696
:1058FC003046FFF769FF013000F0A480099A52444A
:10590C00099299F80030002B00F09C8000234FF096
:10591C00FF32CDE9052309F10109049307938DF8B2
:10592C0053301A934C46052214F8011B4D4800F0D5
:10593C0065FA049BD0B9D80644BF20228DF85320B9
:10594C00190744BF2B228DF8532099F800202A2ADE
:10595C0013D04C4600204FF00A0C079A214611F840
:10596C00013B303B092B49D968B913E0C01B08FA3D
:10597C0000F01843A1460490D4E7039A111D126855
:10598C000391002A01DB079204E0524243F0020328
:10599C000792049323782E2B0AD163782A2B32D1C9
:1059AC00039B02341A1D1B68039243EAE3730593AD
:1059BC00DFF8B49003224846217800F01FFA38B182
:1059CC004022049BA0EB0900824013430134049352
:1059DC0014F8011B062225488DF8281000F00EFA49
:1059EC00002835D0224818BB039B073323F007034C
:1059FC0008330393099B034409936CE70C4601207D
:105A0C000CFB0232AAE700234FF00A0C19460134B2
:105A1C000593204610F8012B303A092A03D9002BA4
:105A2C00C6D00591C4E7044601230CFB0121F0E725
:105A3C0003AB00932A4630460E4B04A9AFF300800B
:105A4C00421CD7D1AB895B063FF532AF099831E7E1
:105A5C0003AB00932A463046064B04A900F07EF8AF
:105A6C00EEE700BF686100086E6100087261000813
:105A7C0000000000D55700082DE9F047164698465F
:105A8C008A680B6907469342B8BF1346336091F896
:105A9C0043200C46DDF820900AB1013333602368B3
:105AAC00990642BF336802333360256815F006054A
:105ABC0006D104F1190AE36832689B1AAB422BDC5D
:105ACC0094F843302268003B18BF0123920630D46F
