:020000040800F2
:1000000000500020711600089D0300089F0300089F
:10001000A1030008A3030008A503000800000000D6
:10002000000000000000000000000000A70300081E
:10003000A903000800000000AB030008AD0300089E
:10004000B9160008B9160008B9160008B916000854
:10005000B9160008B9160008B9160008B916000844
:10006000B9160008B9160008B9160008B916000834
:10007000B9160008B9160008B9160008B916000824
:10008000B9160008B9160008B9160008B916000814
:10009000B5030008B9160008B9160008B91600081B
:1000A000B9160008B9160008B9160008B9160008F4
:1000B000B9160008B9160008B9160008B9160008E4
:1000C000B9160008B9160008B9160008B9160008D4
:1000D000B9160008B9160008B9160008B9160008C4
:1000E000C5030008B9160008B91600080000000092
:1000F0000000000000000000000000000000000000
:0C01000000000000000000005FF808F1A3
:10010C000348044B834202D0034B03B1184770479A
:10011C000C0000200C000020000000000548064BDD
:10012C001B1AD90F01EBA301491002D0034B03B1E9
:10013C00184770470C0000200C0000200000000045
:10014C0010B5064C237843B9FFF7DAFF044B13B113
:10015C000448AFF300800123237010BD0C00002075
:10016C00000000001417000808B5054B1BB1054929
:10017C000548AFF30080BDE80840FFF7CFBF00BFD4
:10018C0000000000100000201417000872B6FEE7F3
:10019C0010B590B006AC28220021204601F087FA59
:1001AC000023019302930393049305930123069375
:1001BC004FF480330793204600F0F2FC68B90F230C
:1001CC00019301230293002103910491059101A84D
:1001DC0000F018FF18B910B010BDFFF7D7FFFFF7EC
:1001EC00D5FF08B500F094FCFFF7D2FF00F006F83D
:1001FC0000F06CF801F05EF9FEE7000070B588B015
:10020C0004AD002404940594069407942B4B9A692E
:10021C0042F010029A619A6902F010020092009A60
:10022C009A6942F020029A619A6902F020020192C6
:10023C00019A9A6942F008029A619A6902F00802DE
:10024C000292029A9A6942F004029A619B6903F045
:10025C0004030393039B1A4E22464FF4005130467D
:10026C0001F090F84FF40053049301230593069486
:10027C00022307932946304600F07AFF4FF480633F
:10028C000493104B05930694A6F5806629463046D8
:10029C0000F06EFF4FF4605304930B4B05930694E0
:1002AC002946304600F064FF22462146282001F002
:1002BC00CDF8282001F0DAF808B070BD001002402B
:1002CC0000100140000022100000211008B50D485C
:1002DC000D4B03600123436000238360C3604FF424
:1002EC00402202614FF4801242610376437683769A
:1002FC00C3760377437700F08FF800B908BDFFF79A
:10030C0045FFFBE7280000200064004030B587B0B3
:10031C000023029303930493059302681A4B9A42A9
:10032C0001D007B030BD03F5D633DA6942F0007264
:10033C00DA61DA6902F000720092009A9A6942F06E
:10034C0004029A619B6903F004030193019B4FF42F
:10035C000063029302AD0D4C2946204600F008FFC5
:10036C004FF48053029302230393032305932946EE
:10037C00204600F0FDFE00221146142001F066F824
:10038C00142001F073F8CCE7006400400008014031
:10039C00FEE7FEE7FEE7FEE7FEE7704770477047B3
:1003AC0008B500F0C1FB08BD08B5024800F061FAC1
:1003BC0008BD00BF2800002008B54FF4006000F015
:1003CC00F1FF4FF4805000F0EDFF4FF4005000F0BF
:1003DC00E9FF08BD82B00E4B9A6942F001029A61A6
:1003EC009A6902F001020092009ADA6942F0805296
:1003FC00DA61DB6903F080530193019B054A536872
:10040C0023F0E06343F00073536002B0704700BF09
:10041C000010024000000140002800F0A18038B517
:10042C00044690F82030D3B12268136843F00103DE
:10043C00136000F085FB054623685A6812F0010F23
:10044C0010D100F07DFB401B0A28F5D9636A43F4F8
:10045C0000336362052384F82030012038BDFFF798
:10046C0055FFE1E71A6822F002021A6000F068FBFF
:10047C00054623685A6812F0020F0DD000F060FB9D
:10048C00401B0A28F5D9636A43F4003363620523E1
:10049C0084F820300120E1E7227E012A3DD01A6841
:1004AC0022F080021A60637E012B3BD02268136815
:1004BC0023F040031360A37E012B39D0226813680C
:1004CC0023F020031360E37E012B37D022681368DE
:1004DC0043F010031360237F012B35D0226813687F
:1004EC0023F008031360637F012B33D02268136859
:1004FC0023F004031360A368E268134322691343D7
:10050C00626913436268013A21681343CB6100208E
:10051C006062012384F82030A0E71A6842F0800260
:10052C001A60C0E72268136843F040031360C2E707
:10053C002268136843F020031360C4E72268136831
:10054C0023F010031360C6E72268136843F0080316
:10055C001360C8E72268136843F004031360CAE70A
:10056C0001207047026890F82030013BDBB2012B70
:10057C0005D9436A43F4802343620120704710B5C8
:10058C00D2F8003243F00103C2F800324B6903F099
:10059C001F03012000FA03F3D2F81C026FEA030CCC
:1005AC0020EA0300C2F81C02C869C0B9D2F80C02D8
:1005BC000CEA0000C2F80C028C884869D1F80CE0F7
:1005CC0044EA0E44483042F830400C884869D1F86F
:1005DC0008E044EA0E44483002EBC0004460C869AD
:1005EC0001281AD0886988BBD2F804020CEA0000F2
:1005FC00C2F80402086978BBD2F814020CEA0000B5
:10060C00C2F81402096A01292CD0D2F8003223F066
:10061C000103C2F80032002010BDD2F80C021843BE
:10062C00C2F80C028C884869D1F800E044EA0E4408
:10063C00483042F830408C894869D1F808E044EAE7
:10064C000E44483002EBC0004460CBE7D2F8040201
:10065C001843C2F80402CDE7D2F814021843C2F8CA
:10066C001402CFE7D2F81C120B43C2F81C32CCE7B1
:10067C0070B5044690F82030012B06D0436A43F441
:10068C00002343620126304670BDDEB2022380F89F
:10069C0020300268136823F00103136000F050FA55
:1006AC00054623685B6813F0010F0CD000F048FA84
:1006BC00431B0A2BF5D9636A43F4003363620523A9
:1006CC0084F82030DFE700266662DCE790F820C073
:1006DC000CF1FF3C5FFA8CFCBCF1010F00F2A58021
:1006EC0030B451B90468E46814F0030F10D1436AB4
:1006FC0043F40013436201207EE00468246914F083
:10070C00030F05D1436A43F400134362012073E0E5
:10071C00056801F11B0424012C5904F004049460B5
:10072C00002C6BD1056801F11B0424012C59640DBC
:10073C001460046801F11B0C4FEA0C1C54F80C40BB
:10074C0004F00204D4600468A444DCF8045015F0EE
:10075C00080F5BD008241461046801F11B0C04EB36
:10076C000C146468C4F307249461046804EB0C143F
:10077C006468240C5461026802EB0112D2F8B821AF
:10078C001A70026802EB0112D2F8B821C2F30722E8
:10079C005A70026802EB0112D2F8B821C2F3074278
:1007AC009A70026802EB0112D2F8B821120EDA70BC
:1007BC00026802EB0112D2F8BC211A71026802EB3A
:1007CC000112D2F8BC21C2F307225A71026802EB63
:1007DC000112D2F8BC21C2F307429A71026802EBF3
:1007EC000112D2F8BC21120EDA71C1B90268D368B9
:1007FC0043F02003D360002030BC7047056801F142
:10080C001B0424012C59E408546092E701F11B05E8
:10081C0004EB0514646804F00F0414619CE702688F
:10082C00136943F020031361E5E7436A43F4802323
:10083C0043620120704790F82030013BDBB2012B62
:10084C0005D9436A43F48023436201207047026850
:10085C0053690B43536100207047704770477047D2
:10086C0070477047704770477047704770477047C4
:10087C0070472DE9F84F054603685C69D3F804808E
:10088C009F68D3F80CA0D3F81090D3F818B014F0DC
:10089C0001063BD017F0010616D001229A6017F022
:1008AC00020F08D117F0040F0CD117F0080606D070
:1008BC004FF4805608E0FFF7D0FF002604E0FFF766
:1008CC00CFFF01E04FF4006617F4807F0DD02B684A
:1008DC004FF480729A6017F4007F40F0968017F402
:1008EC00806F00F0968046F4005617F4803F0DD0D0
:1008FC002B684FF480329A6017F4003F40F09380DD
:10090C0017F4802F00F0938046F4004614F0080F83
:10091C0007D01AF0100F04D046F400762B68102282
:10092C00DA6014F0040F03D01AF0080F40F089803D
:10093C0014F0020F05D02B68DB6813F0030F40F0A6
:10094C00878014F0400F07D019F0100F04D046F434
:10095C0080662B6810221A6114F0200F02D019F057
:10096C00080F79D114F0100F04D02B681B6913F009
:10097C00030F78D114F4003F02D018F0100F76D189
:10098C0014F4803F02D018F0080F77D114F4004F04
:10099C0037D018F0040F31D014F4807F04D01BF042
:1009AC00010F01D046F0010614F4007F04D01BF0B7
:1009BC00020F01D046F0020614F4806F04D01BF035
:1009CC00040F01D046F0040614F4006F16D01BF08F
:1009DC00700B13D0BBF1400F66D056D8BBF1200F73
:1009EC005CD0BBF1300F5CD0BBF1100F01D146F0E5
:1009FC0008062A68936923F0700393612B6804221C
:100A0C005A60002E56D1BDE8F88F2846FFF726FF16
:100A1C006BE717F4006F02D046F4804665E7284672
:100A2C00FFF71FFF61E72846FFF719FF6EE717F482
:100A3C00002F02D046F4803668E72846FFF712FFF5
:100A4C0064E72B680822DA602846FFF70CFF6FE793
:100A5C00284600F09FFD74E72B6808221A6128468F
:100A6C00FFF703FF7EE72846FFF7FEFE82E72B68C1
:100A7C0010225A602846FFF7F9FE81E72B680822FE
:100A8C005A602846FFF7F3FE80E7BBF1500F0ED0FB
:100A9C00BBF1600FADD146F48076AAE746F01006A4
:100AAC00A7E746F02006A4E746F04006A1E746F08B
:100ABC0080069EE76B6A33436B622846FFF7D8FECD
:100ACC00A1E7000010B504460E4B1A784FF47A7368
:100ADC00B3FBF2F30C4A1068B0FBF3F000F0D4FC5B
:100AEC0068B90F2C01D901200AE0002221464FF0F1
:100AFC00FF3000F0ABFC054B1C60002000E0012037
:100B0C0010BD00BF000000200800002004000020E1
:100B1C0008B5032000F088FC0F20FFF7D3FFFFF788
:100B2C0059FC002008BD0000034A1168034B1B78D8
:100B3C000B441360704700BF5000002000000020E1
:100B4C00014B1868704700BF5000002038B50446B0
:100B5C00FFF7F6FF0546B4F1FF3F02D0044B1B78BC
:100B6C001C44FFF7EDFF401BA042FAD338BD00BF79
:100B7C000000002082B0084B1B68084AA2FB03232C
:100B8C005B0A00FB03F3019300BF019B5A1E019209
:100B9C00002BF9D102B0704708000020D34D621031
:100BAC00002800F0F18170B582B00446036813F0A0
:100BBC00010F2CD0994B5B6803F00C03042B1DD058
:100BCC00964B5B6803F00C03082B12D06368B3F5EB
:100BDC00803F41D0002B55D103F1804303F5043302
:100BEC001A6822F480321A601A6822F480221A6081
:100BFC0037E08A4B5B6813F4803FE7D0874B1B6868
:100C0C0013F4003F03D06368002B00F0BF8123680E
:100C1C0013F0020F75D0814B5B6813F00C0F5FD093
:100C2C007E4B5B6803F00C03082B54D02369002B1C
:100C3C0000F08A807A4B01221A60FFF781FF05468B
:100C4C00764B1B6813F0020F75D1FFF779FF401B31
:100C5C000228F5D903209EE1704A136843F48033CF
:100C6C001360636843B3FFF76BFF05466B4B1B6860
:100C7C0013F4003FCBD1FFF763FF401B6428F5D979
:100C8C00032088E1B3F5A02F09D0644B1A6822F435
:100C9C0080321A601A6822F480221A60E1E703F1AC
:100CAC008043A3F53C331A6842F480221A601A6818
:100CBC0042F480321A60D4E7FFF742FF0546574BE7
:100CCC001B6813F4003FA2D0FFF73AFF401B6428C7
:100CDC00F5D903205FE1514B5B6813F4803FA5D13C
:100CEC004E4B1B6813F0020F03D02369012B40F00D
:100CFC004F814A4A136823F0F803616943EAC10340
:100D0C001360236813F0080F33D0A369002B5CD059
:100D1C00434B0122C3F88024FFF712FF05463F4BDB
:100D2C005B6A13F0020F21D1FFF70AFF401B022868
:100D3C00F5D903202FE1394A136823F0F8036169D0
:100D4C0043EAC1031360DCE7354B00221A60FFF75E
:100D5C00F7FE0546314B1B6813F0020FD1D0FFF79D
:100D6C00EFFE401B0228F5D9032014E10120FFF708
:100D7C0001FF236813F0040F00F09680274BDB690A
:100D8C0013F0805F34D1254BDA6942F08052DA617E
:100D9C00DB6903F080530193019B0125214B1B68F8
:100DAC0013F4807F26D0E368012B3DD0002B53D168
:100DBC0003F1804303F504331A6A22F001021A622C
:100DCC001A6A22F004021A6233E0154B0022C3F8AF
:100DDC008024FFF7B5FE0546104B5B6A13F0020F3B
:100DEC00C7D0FFF7ADFE401B0228F5D90320D2E097
:100DFC000025D3E70B4A136843F480731360FFF7A5
:100E0C009FFE0646074B1B6813F4807FCBD1FFF780
:100E1C0097FE801B6428F5D90320BCE0001002402B
:100E2C0000004242007000405F4A136A43F0010325
:100E3C001362E36833B3FFF783FE06465A4B1B6A13
:100E4C0013F0020F2FD1FFF77BFE801B41F288338A
:100E5C009842F3D903209EE0052B09D0524B1A6A15
:100E6C0022F001021A621A6A22F004021A62E0E706
:100E7C004D4B1A6A42F004021A621A6A42F00102DD
:100E8C001A62D6E7FFF75CFE0646474B1B6A13F067
:100E9C00020F08D0FFF754FE801B41F288339842B2
:100EAC00F3D9032077E0E5B9E369002B72D03E4A11
:100EBC00526802F00C02082A56D0022B17D03B4B7A
:100ECC0000221A66FFF73CFE0446374B1B6813F0F2
:100EDC00007F47D0FFF734FE001B0228F5D9032012
:100EEC0059E0314AD36923F08053D361DCE72F4BAF
:100EFC0000221A66FFF724FE05462B4B1B6813F0E5
:100F0C00007F06D0FFF71CFE401B0228F5D90320FA
:100F1C0041E0236AB3F5803F1AD023494B6823F490
:100F2C007413226A606A024313434B601F4B012205
:100F3C001A66FFF705FE04461B4B1B6813F0007F77
:100F4C000ED1FFF7FDFD001B0228F5D9032022E08E
:100F5C00154A536823F40033A1680B435360DCE754
:100F6C00002018E0002016E0012B16D00E4B5B6819
:100F7C0003F48031226A914211D103F47013626A36
:100F8C0093420ED1002006E001207047012002E0C0
:100F9C00012000E0002002B070BD0120FBE7012021
:100FAC00F9E70120F7E700BF0010024000004242C1
:100FBC000F4B5B6803F00C02082A01D00D487047F8
:100FCC00C3F383420C49885C13F4803F0BD0084B6D
:100FDC005B68C3F34043094AD35C064A02FB00F04A
:100FEC00B0FBF3F07047064B03FB00F0704700BFFB
:100FFC000010024000127A003C1700083817000855
:10100C0000093D00002800F0A08070B50D46044694
:10101C00524B1B6803F007038B420BD24F4A1368E9
:10102C0023F007030B431360136803F007038B4291
:10103C0040F08D80236813F0020F17D013F0040FCB
:10104C0004D0474A536843F4E0635360236813F0B9
:10105C00080F04D0424A536843F460535360404A2B
:10106C00536823F0F003A1680B435360236813F01B
:10107C00010F31D06368012B20D0022B25D0384AC8
:10108C00126812F0020F64D035494A6822F003024C
:10109C0013434B60FFF754FD0646314B5B6803F07E
:1010AC000C036268B3EB820F16D0FFF749FD801B6F
:1010BC0041F288339842F0D9032045E0284A12685F
:1010CC0012F4003FE0D101203EE0254A126812F0F4
:1010DC00007FD9D1012037E0204B1B6803F00703B8
:1010EC00AB420AD91D4A136823F007032B43136044
:1010FC00136803F00703AB422DD1236813F0040FE0
:10110C0006D0174A536823F4E063E1680B4353603D
:10111C00236813F0080F07D0114A536823F4605367
:10112C00216943EAC1035360FFF742FF0C4B5B6834
:10113C00C3F303130B4AD35CD8400B4B18600B4B17
:10114C001868FFF7BFFC002070BD0120704701201C
:10115C00FAE70120F8E70120F6E700BF0020024083
:10116C00001002404C17000808000020040000206A
:10117C0070B582B00024A4469EE07C4DAB4214D0E6
:10118C000CD8A5F58015AB420FD005F57025AB42F8
:10119C000BD0A5F58015AB421FD106E0744DAB42C8
:1011AC0003D005F58035AB4217D18B68A3B1012B69
:1011BC000DD04261082410E0CC680EE0CC680434F9
:1011CC000BE0CC68083408E0CC680C3405E0026114
:1011DC00082402E0002400E00424BEF1FF0F37D8FD
:1011EC0006464FEA8C0233680F25954023EA050327
:1011FC0004FA02F2134333604B6813F0805F59D04A
:10120C005C4B9A6942F001029A619B6903F00103FD
:10121C000193019B4FEA9C02951C574B53F8256098
:10122C000CF00305AD000F23AB4026EA0306534B2D
:10123C00984214D003F58063984279D003F580630B
:10124C00984277D003F58063984206D0042307E0D8
:10125C00061DACF108029200C5E7032300E0002351
:10126C00AB4033430232444D45F822304B6813F403
:10127C00801F61D0424A936843EA0E0393604B6827
:10128C0013F4001F5ED03E4AD36843EA0E03D360CA
:10129C004B6813F4003F5BD0394A536843EA0E03A2
:1012AC0053604B6813F4803F58D0354A136843EAB7
:1012BC000E0313600CF1010C0B6833FA0CF253D0D3
:1012CC00012202FA0CF203EA020E32EA0303F1D114
:1012DC004B68122B3FF651AF122B3FF67EAF01A598
:1012EC0055F823F0B7110008C5110008CF110008FC
:1012FC00E1110008E7110008E7110008E7110008E8
:10130C00E7110008E7110008E7110008E7110008D1
:10131C00E7110008E7110008E7110008E7110008C1
:10132C00E7110008E7110008C9110008D5110008E1
:10133C00012395E7022393E7114A936823EA0E03EE
:10134C0093609CE70E4AD36823EA0E03D3609FE7B1
:10135C000B4A536823EA0E035360A2E7084A13684A
:10136C0023EA0E031360A5E702B070BD0000221043
:10137C000000311000100240000001400008014044
:10138C00000401400AB10161704709040161704712
:10139C00C36801EA030221EA030141EA0241016147
:1013AC007047704708B5054B5B69034200D108BD17
:1013BC00024B5861FFF7F5FFF9E700BF000401404D
:1013CC00002808DB0901C9B200F1604000F561405A
:1013DC0080F80013704700F00F000901C9B2014BEF
:1013EC001954704714ED00E000B500F00700C0F18F
:1013FC00070CBCF1040F28BF4FF0040C031D062B87
:10140C000FD9C31E4FF0FF3E0EFA0CF021EA00017B
:10141C0099400EFA03FE22EA0E0241EA02005DF840
:10142C0004FB0023EEE70000074AD36823F4E063D3
:10143C001B041B0C000200F4E060034343F0BF6389
:10144C0043F40033D360704700ED00E010B5044660
:10145C00054BD868C0F30220FFF7C6FF01462046B3
:10146C00FFF7AEFF10BD00BF00ED00E0002807DB6A
:10147C0000F01F02400901239340024A42F8203039
:10148C00704700BF00E100E00138B0F1807F0BD263
:10149C004FF0E0235861054AF02182F82310002018
:1014AC00986107221A6170470120704700ED00E037
:1014BC007047000030B585B0502000F03DF81A4A56
:1014CC0001AB07CA83E80700184C1A4606212046D0
:1014DC0000F088F840F24741204600F06DF8144BBC
:1014EC001B68002BFBD00024104A92F8403092F875
:1014FC0041201344A34203DC0D4B00221A60EEE79B
:10150C000C4D4FF400512846FFF742FFC820FFF75F
:10151C001DFB4FF400512846FFF73AFFC820FFF798
:10152C0015FB0134E0E700BF2C1700085400002025
:10153C00A00000200010014070B5054610F0800F8F
:10154C0008D072B64FF0E022136943F00103136127
:10155C0001261AE0002618E000224FF400510C4836
:10156C00FFF710FFC820FFF7F1FA0134072C0BDC52
:10157C0005FA04F313F0800FEED001224FF4005162
:10158C000348FFF7FFFEEDE70EB10124EEE770BD57
:10159C000010014008B5064B1A6802F140032432D2
:1015AC000021FFF793F8034B01221A6008BD00BF1E
:1015BC009C000020A000002038B504460023836066
:1015CC000160C360054D2846FFF752F8044B1C60C0
:1015DC0002212846FFF72FF938BD00BF2800002054
:1015EC009C000020F0B58BB00E46174601230893E3
:1015FC0000240494069307940D4607E0022D1ADC90
:10160C00043D69461648FEF7ADFF0134731E23D422
:10161C00B4EBA30F22DC23460594002DEEDDE20093
:10162C0037F8341049010091012DE9DD3A44528814
:10163C0052010192E2E7DA0007EBC3039B885B01DE
:10164C0002932B1F032D05DD3A44D28852010392DD
:10165C001D46D6E71D46D4E70333D9E70BB0F0BDE2
:10166C0028000020FFF724FF0B480C490C4A0023EC
:10167C0002E0D458C4500433C4188C42F9D3094A3C
:10168C00094C002301E013600432A242FBD300F0AA
:10169C0017F8FEF7A6FD7047000000200C00002094
:1016AC00641700080C000020A4000020FEE703468D
:1016BC000244934200D1704703F8011BF9E7000084
:1016CC0070B500260C4D0D4B5B1B9C10A64209D12E
:1016DC00002600F019F80A4D0A4B5B1B9C10A64221
:1016EC0005D170BD55F8043B98470136EEE755F827
:1016FC00043B98470136F2E75C1700085C170008BA
:10170C005C17000860170008F8B500BFF8BC08BCEF
:10171C009E467047F8B500BFF8BC08BC9E467047A3
:10172C0047044904010002000300450401020000C3
:10173C0002030405060708090A0B0C0D0E0F101006
:10174C000000000000000000010203040607080965
:04175C00750100080B
:041760004D0100082F
:0C176400010000001000000000127A00DC
:040000050800167168
:00000001FF
