:020000040800F2
:1000000000500020B51F00087503000877030008A2
:10001000790300087B0300087D030008000000004E
:100020000000000000000000000000007F03000846
:100030008103000800000000830300088503000816
:10004000FD1F0008FD1F0008FD1F0008FD1F000820
:10005000FD1F0008FD1F0008FD1F0008FD1F000810
:10006000FD1F0008FD1F0008FD1F0008FD1F000800
:10007000FD1F0008FD1F0008FD1F0008FD1F0008F0
:10008000FD1F0008FD1F0008FD1F0008FD1F0008E0
:100090008D030008FD1F0008FD1F0008FD1F00085C
:1000A000FD1F0008FD1F0008FD1F0008FD1F0008C0
:1000B000FD1F00089D030008FD1F0008FD1F00082C
:1000C000FD1F0008FD1F0008FD1F0008FD1F0008A0
:1000D000FD1F0008FD1F0008FD1F0008FD1F000890
:1000E000AD030008FD1F0008FD1F00080000000010
:1000F0000000000000000000000000000000000000
:0C01000000000000000000005FF808F1A3
:10010C000348044B834202D0034B03B1184770479A
:10011C000C0000200C000020000000000548064BDD
:10012C001B1AD90F01EBA301491002D0034B03B1E9
:10013C00184770470C0000200C0000200000000045
:10014C0010B5064C237843B9FFF7DAFF044B13B113
:10015C000448AFF300800123237010BD0C00002075
:10016C00000000005820000808B5054B1BB10549DC
:10017C000548AFF30080BDE80840FFF7CFBF00BFD4
:10018C0000000000100000205820000872B6FEE7A6
:10019C0010B590B006AC28220021204601F029FFB2
:1001AC000023019302930393049305930122069277
:1001BC004FF4803307930A9202220D920E934FF460
:1001CC00C0130F93204600F043FD78B90F23019321
:1001DC0002210291002303934FF4C0620492059311
:1001EC0001A800F067FF18B910B010BDFFF7CEFFE3
:1001FC00FFF7CCFF08B500F0F7FCFFF7C9FF00F0E4
:10020C000BF800F04FF801F0EDFA01F025FB01F0CE
:10021C005BFB01F097F9FEE710B588B004A9002448
:10022C0004944C608C60CC601B4B9A6942F01002B9
:10023C009A619A6902F010020092009A9A6942F04F
:10024C0020029A619A6902F020020192019A9A693D
:10025C0042F008029A619A6902F008020292029A2C
:10026C009A6942F004029A619B6903F004030393B8
:10027C00039B4FF470530493084B0593084800F00C
:10028C00CFFF22462146282001F028F9282001F032
:10029C0035F908B010BD00BF00100240000021105D
:1002AC00000C014008B50D480D4B03600123436061
:1002BC0000238360C3604FF4402202614FF480122C
:1002CC004261037643768376C3760377437700F0F7
:1002DC009BF800B908BDFFF759FFFBE72800002089
:1002EC000064004030B587B000230293039304935D
:1002FC00059302681A4B9A4201D007B030BD03F542
:10030C00D633DA6942F00072DA61DA6902F000720F
:10031C000092009A9A6942F004029A619B6903F078
:10032C0004030193019B4FF40063029302AD0D4C47
:10033C002946204600F074FF4FF4805302930223A9
:10034C000393032305932946204600F069FF0022FE
:10035C001146142001F0C2F8142001F0CFF8CCE7BC
:10036C000064004000080140FEE7FEE7FEE7FEE700
:10037C00FEE770477047704708B500F041FC08BDB8
:10038C0008B5024800F0E2FA08BD00BF28000020C2
:10039C0008B5024801F0A2FB08BD00BFF400002024
:1003AC0008B54FF4806001F045F84FF4006001F09F
:1003BC0041F84FF4805001F03DF84FF4005001F03B
:1003CC0039F808BD82B00E4B9A6942F001029A616D
:1003DC009A6902F001020092009ADA6942F08052A6
:1003EC00DA61DB6903F080530193019B054A536882
:1003FC0023F0E06343F00073536002B0704700BF1A
:10040C000010024000000140002800F0A18038B527
:10041C00044690F82030D3B12268136843F00103EE
:10042C00136000F0F9FB054623685A6812F0010FBF
:10043C0010D100F0F1FB401B0A28F5D9636A43F494
:10044C0000336362052384F82030012038BDFFF7A8
:10045C0049FFE1E71A6822F002021A6000F0DCFBA7
:10046C00054623685A6812F0020F0DD000F0D4FB39
:10047C00401B0A28F5D9636A43F4003363620523F1
:10048C0084F820300120E1E7227E012A3DD01A6851
:10049C0022F080021A60637E012B3BD02268136825
:1004AC0023F040031360A37E012B39D0226813681C
:1004BC0023F020031360E37E012B37D022681368EE
:1004CC0043F010031360237F012B35D0226813688F
:1004DC0023F008031360637F012B33D02268136869
:1004EC0023F004031360A368E268134322691343E7
:1004FC00626913436268013A21681343CB6100209F
:10050C006062012384F82030A0E71A6842F0800270
:10051C001A60C0E72268136843F040031360C2E717
:10052C002268136843F020031360C4E72268136841
:10053C0023F010031360C6E72268136843F0080326
:10054C001360C8E72268136843F004031360CAE71A
:10055C0001207047026890F82030013BDBB2012B80
:10056C0005D9436A43F4802343620120704710B5D8
:10057C00D2F8003243F00103C2F800324B6903F0A9
:10058C001F03012000FA03F3D2F81C026FEA030CDC
:10059C0020EA0300C2F81C02C869C0B9D2F80C02E8
:1005AC000CEA0000C2F80C028C884869D1F80CE007
:1005BC0044EA0E44483042F830400C884869D1F87F
:1005CC0008E044EA0E44483002EBC0004460C869BD
:1005DC0001281AD0886988BBD2F804020CEA000002
:1005EC00C2F80402086978BBD2F814020CEA0000C5
:1005FC00C2F81402096A01292CD0D2F8003223F077
:10060C000103C2F80032002010BDD2F80C021843CE
:10061C00C2F80C028C884869D1F800E044EA0E4418
:10062C00483042F830408C894869D1F808E044EAF7
:10063C000E44483002EBC0004460CBE7D2F8040211
:10064C001843C2F80402CDE7D2F814021843C2F8DA
:10065C001402CFE7D2F81C120B43C2F81C32CCE7C1
:10066C0070B5044690F82030012B06D0436A43F451
:10067C00002343620126304670BDDEB2022380F8AF
:10068C0020300268136823F00103136000F0C4FAF1
:10069C00054623685B6813F0010F0CD000F0BCFA20
:1006AC00431B0A2BF5D9636A43F4003363620523B9
:1006BC0084F82030DFE700266662DCE730B590F87E
:1006CC0020C00468A4680CF1FF3C5FFA8CFCBCF100
:1006DC00010F62D814F0E05F59D0C4F3016C01240F
:1006EC0004FA0CF41C608B68002B3DD10D68CB68B0
:1006FC00046843EA45550CF118031B01E5500368E7
:10070C000C690CF1180E03EB0E135C600B7D012BC6
:10071C0035D0D17993791B0443EA0163517943EACB
:10072C00012314790168234301EB0C11C1F88C31BE
:10073C00D17893781B0443EA0163517843EA01238F
:10074C00117802680B4302EB0C12C2F88831026874
:10075C000CF1180C4FEA0C1C52F80C3043F001034E
:10076C0042F80C3000201DE04C6843EAC403CC680E
:10077C0023430CF11804240105682B51BFE70368CF
:10078C0003EB0E13596841F480715960C1E7436A59
:10079C0043F400134362012004E0436A43F48023D2
:1007AC004362012030BD90F820C00CF1FF3C5FFA91
:1007BC008CFCBCF1010F00F2A58030B451B9046877
:1007CC00E46814F0030F10D1436A43F4001343623E
:1007DC0001207EE00468246914F0030F05D1436AFC
:1007EC0043F400134362012073E0056801F11B041C
:1007FC0024012C5904F004049460002C6BD105687E
:10080C0001F11B0424012C59640D1460046801F1DE
:10081C001B0C4FEA0C1C54F80C4004F00204D4607E
:10082C000468A444DCF8045015F0080F5BD00824CD
:10083C001461046801F11B0C04EB0C146468C4F320
:10084C0007249461046804EB0C146468240C546150
:10085C00026802EB0112D2F8B8211A70026802EB9E
:10086C000112D2F8B821C2F307225A70026802EBC7
:10087C000112D2F8B821C2F307429A70026802EB57
:10088C000112D2F8B821120EDA70026802EB0112D2
:10089C00D2F8BC211A71026802EB0112D2F8BC2109
:1008AC00C2F307225A71026802EB0112D2F8BC2182
:1008BC00C2F307429A71026802EB0112D2F8BC2112
:1008CC00120EDA71C1B90268D36843F02003D36009
:1008DC00002030BC7047056801F11B0424012C5921
:1008EC00E408546092E701F11B0504EB05146468FD
:1008FC0004F00F0414619CE70268136943F02003B1
:10090C001361E5E7436A43F4802343620120704797
:10091C0090F82030013BDBB2012B05D9436A43F43C
:10092C008023436201207047026853690B43536173
:10093C00002070477047704770477047704770478A
:10094C007047704770477047704770472DE9F84FF4
:10095C00054603685C69D3F804809F68D3F80CA043
:10096C00D3F81090D3F818B014F001063BD017F060
:10097C00010616D001229A6017F0020F08D117F069
:10098C00040F0CD117F0080606D04FF4805608E07F
:10099C00FFF7D0FF002604E0FFF7CFFF01E04FF494
:1009AC00006617F4807F0DD02B684FF480729A602C
:1009BC0017F4007F40F0968017F4806F00F096805B
:1009CC0046F4005617F4803F0DD02B684FF480325C
:1009DC009A6017F4003F40F0938017F4802F00F0DA
:1009EC00938046F4004614F0080F07D01AF0100F4D
:1009FC0004D046F400762B681022DA6014F0040F51
:100A0C0003D01AF0080F40F0898014F0020F05D0C3
:100A1C002B68DB6813F0030F40F0878014F0400F55
:100A2C0007D019F0100F04D046F480662B68102202
:100A3C001A6114F0200F02D019F0080F79D114F0BC
:100A4C00100F04D02B681B6913F0030F78D114F42A
:100A5C00003F02D018F0100F76D114F4803F02D072
:100A6C0018F0080F77D114F4004F37D018F0040F9A
:100A7C0031D014F4807F04D01BF0010F01D046F06C
:100A8C00010614F4007F04D01BF0020F01D046F0D5
:100A9C00020614F4806F04D01BF0040F01D046F052
:100AAC00040614F4006F16D01BF0700B13D0BBF1BE
:100ABC00400F66D056D8BBF1200F5CD0BBF1300F85
:100ACC005CD0BBF1100F01D146F008062A6893697F
:100ADC0023F0700393612B6804225A60002E56D1C8
:100AEC00BDE8F88F2846FFF726FF6BE717F4006F79
:100AFC0002D046F4804665E72846FFF71FFF61E702
:100B0C002846FFF719FF6EE717F4002F02D046F4C2
:100B1C00803668E72846FFF712FF64E72B68082247
:100B2C00DA602846FFF70CFF6FE7284600F060FDFF
:100B3C0074E72B6808221A612846FFF703FF7EE74B
:100B4C002846FFF7FEFE82E72B6810225A602846E3
:100B5C00FFF7F9FE81E72B6808225A602846FFF759
:100B6C00F3FE80E7BBF1500F0ED0BBF1600FADD19F
:100B7C0046F48076AAE746F01006A7E746F0200672
:100B8C00A4E746F04006A1E746F080069EE76B6AB4
:100B9C0033436B622846FFF7D8FEA1E710B5044635
:100BAC000E4B1A784FF47A73B3FBF2F30C4A1068BD
:100BBC00B0FBF3F000F0B0FC68B90F2C01D90120A8
:100BCC000AE0002221464FF0FF3000F087FC054B75
:100BDC001C60002000E0012010BD00BF00000020C0
:100BEC00080000200400002008B5032000F064FC7D
:100BFC000F20FFF7D3FFFFF7E5FB002008BD000037
:100C0C00034A1168034B1B780B441360704700BFF9
:100C1C005000002000000020014B1868704700BFF6
:100C2C005000002082B0084B1B68084AA2FB03232B
:100C3C005B0A00FB03F3019300BF019B5A1E019258
:100C4C00002BF9D102B0704708000020D34D621080
:100C5C00002800F0F18170B582B00446036813F0EF
:100C6C00010F2CD0994B5B6803F00C03042B1DD0A7
:100C7C00964B5B6803F00C03082B12D06368B3F53A
:100C8C00803F41D0002B55D103F1804303F5043351
:100C9C001A6822F480321A601A6822F480221A60D0
:100CAC0037E08A4B5B6813F4803FE7D0874B1B68B7
:100CBC0013F4003F03D06368002B00F0BF8123685E
:100CCC0013F0020F75D0814B5B6813F00C0F5FD0E3
:100CDC007E4B5B6803F00C03082B54D02369002B6C
:100CEC0000F08A807A4B01221A60FFF795FF0546C7
:100CFC00764B1B6813F0020F75D1FFF78DFF401B6D
:100D0C000228F5D903209EE1704A136843F480331E
:100D1C001360636843B3FFF77FFF05466B4B1B689B
:100D2C0013F4003FCBD1FFF777FF401B6428F5D9B4
:100D3C00032088E1B3F5A02F09D0644B1A6822F484
:100D4C0080321A601A6822F480221A60E1E703F1FB
:100D5C008043A3F53C331A6842F480221A601A6867
:100D6C0042F480321A60D4E7FFF756FF0546574B22
:100D7C001B6813F4003FA2D0FFF74EFF401B642802
:100D8C00F5D903205FE1514B5B6813F4803FA5D18B
:100D9C004E4B1B6813F0020F03D02369012B40F05C
:100DAC004F814A4A136823F0F803616943EAC1038F
:100DBC001360236813F0080F33D0A369002B5CD0A9
:100DCC00434B0122C3F88024FFF726FF05463F4B17
:100DDC005B6A13F0020F21D1FFF71EFF401B0228A4
:100DEC00F5D903202FE1394A136823F0F803616920
:100DFC0043EAC1031360DCE7354B00221A60FFF7AE
:100E0C000BFF0546314B1B6813F0020FD1D0FFF7D7
:100E1C0003FF401B0228F5D9032014E10120FFF742
:100E2C0001FF236813F0040F00F09680274BDB6959
:100E3C0013F0805F34D1254BDA6942F08052DA61CD
:100E4C00DB6903F080530193019B0125214B1B6847
:100E5C0013F4807F26D0E368012B3DD0002B53D1B7
:100E6C0003F1804303F504331A6A22F001021A627B
:100E7C001A6A22F004021A6233E0154B0022C3F8FE
:100E8C008024FFF7C9FE0546104B5B6A13F0020F76
:100E9C00C7D0FFF7C1FE401B0228F5D90320D2E0D2
:100EAC000025D3E70B4A136843F480731360FFF7F4
:100EBC00B3FE0646074B1B6813F4807FCBD1FFF7BC
:100ECC00ABFE801B6428F5D90320BCE00010024067
:100EDC0000004242007000405F4A136A43F0010375
:100EEC001362E36833B3FFF797FE06465A4B1B6A4F
:100EFC0013F0020F2FD1FFF78FFE801B41F28833C6
:100F0C009842F3D903209EE0052B09D0524B1A6A64
:100F1C0022F001021A621A6A22F004021A62E0E755
:100F2C004D4B1A6A42F004021A621A6A42F001022C
:100F3C001A62D6E7FFF770FE0646474B1B6A13F0A2
:100F4C00020F08D0FFF768FE801B41F288339842ED
:100F5C00F3D9032077E0E5B9E369002B72D03E4A60
:100F6C00526802F00C02082A56D0022B17D03B4BC9
:100F7C0000221A66FFF750FE0446374B1B6813F02D
:100F8C00007F47D0FFF748FE001B0228F5D903204D
:100F9C0059E0314AD36923F08053D361DCE72F4BFE
:100FAC0000221A66FFF738FE05462B4B1B6813F020
:100FBC00007F06D0FFF730FE401B0228F5D9032036
:100FCC0041E0236AB3F5803F1AD023494B6823F4E0
:100FDC007413226A606A024313434B601F4B012255
:100FEC001A66FFF719FE04461B4B1B6813F0007FB3
:100FFC000ED1FFF711FE001B0228F5D9032022E0C9
:10100C00154A536823F40033A1680B435360DCE7A3
:10101C00002018E0002016E0012B16D00E4B5B6868
:10102C0003F48031226A914211D103F47013626A85
:10103C0093420ED1002006E001207047012002E00F
:10104C00012000E0002002B070BD0120FBE7012070
:10105C00F9E70120F7E700BF001002400000424210
:10106C000F4B5B6803F00C02082A01D00D48704747
:10107C00C3F383420C49885C13F4803F0BD0084BBC
:10108C005B68C3F34043094AD35C064A02FB00F099
:10109C00B0FBF3F07047064B03FB00F0704700BF4A
:1010AC000010024000127A00742000087020000822
:1010BC0000093D00002800F0A08070B50D460446E4
:1010CC00524B1B6803F007038B420BD24F4A136839
:1010DC0023F007030B431360136803F007038B42E1
:1010EC0040F08D80236813F0020F17D013F0040F1B
:1010FC0004D0474A536843F4E0635360236813F009
:10110C00080F04D0424A536843F460535360404A7A
:10111C00536823F0F003A1680B435360236813F06A
:10112C00010F31D06368012B20D0022B25D0384A17
:10113C00126812F0020F64D035494A6822F003029B
:10114C0013434B60FFF768FD0646314B5B6803F0B9
:10115C000C036268B3EB820F16D0FFF75DFD801BAA
:10116C0041F288339842F0D9032045E0284A1268AE
:10117C0012F4003FE0D101203EE0254A126812F043
:10118C00007FD9D1012037E0204B1B6803F0070307
:10119C00AB420AD91D4A136823F007032B43136093
:1011AC00136803F00703AB422DD1236813F0040F2F
:1011BC0006D0174A536823F4E063E1680B4353608D
:1011CC00236813F0080F07D0114A536823F46053B7
:1011DC00216943EAC1035360FFF742FF0C4B5B6884
:1011EC00C3F303130B4AD35CD8400B4B18600B4B67
:1011FC001868FFF7D3FC002070BD01207047012058
:10120C00FAE70120F8E70120F6E700BF00200240D2
:10121C000010024084200008080000200400002078
:10122C0070B582B00024A4469EE07C4DAB4214D035
:10123C000CD8A5F58015AB420FD005F57025AB4247
:10124C000BD0A5F58015AB421FD106E0744DAB4217
:10125C0003D005F58035AB4217D18B68A3B1012BB8
:10126C000DD04261082410E0CC680EE0CC68043448
:10127C000BE0CC68083408E0CC680C3405E0026163
:10128C00082402E0002400E00424BEF1FF0F37D84C
:10129C0006464FEA8C0233680F25954023EA050376
:1012AC0004FA02F2134333604B6813F0805F59D099
:1012BC005C4B9A6942F001029A619B6903F001034D
:1012CC000193019B4FEA9C02951C574B53F82560E8
:1012DC000CF00305AD000F23AB4026EA0306534B7D
:1012EC00984214D003F58063984279D003F580635B
:1012FC00984277D003F58063984206D0042307E028
:10130C00061DACF108029200C5E7032300E00023A0
:10131C00AB4033430232444D45F822304B6813F452
:10132C00801F61D0424A936843EA0E0393604B6876
:10133C0013F4001F5ED03E4AD36843EA0E03D36019
:10134C004B6813F4003F5BD0394A536843EA0E03F1
:10135C0053604B6813F4803F58D0354A136843EA06
:10136C000E0313600CF1010C0B6833FA0CF253D022
:10137C00012202FA0CF203EA020E32EA0303F1D163
:10138C004B68122B3FF651AF122B3FF67EAF01A5E7
:10139C0055F823F067120008751200087F12000838
:1013AC009112000897120008971200089712000873
:1013BC00971200089712000897120008971200085D
:1013CC00971200089712000897120008971200084D
:1013DC00971200089712000879120008851200086D
:1013EC00012395E7022393E7114A936823EA0E033E
:1013FC0093609CE70E4AD36823EA0E03D3609FE701
:10140C000B4A536823EA0E035360A2E7084A136899
:10141C0023EA0E031360A5E702B070BD0000221092
:10142C000000311000100240000001400008014093
:10143C000004014008B5054B5B69034200D108BDAF
:10144C00024B586100F0AAF9F9E700BF0004014013
:10145C00002808DB0901C9B200F1604000F56140C9
:10146C0080F80013704700F00F000901C9B2014B5E
:10147C001954704714ED00E000B500F00700C0F1FE
:10148C00070CBCF1040F28BF4FF0040C031D062BF6
:10149C000FD9C31E4FF0FF3E0EFA0CF021EA0001EB
:1014AC0099400EFA03FE22EA0E0241EA02005DF8B0
:1014BC0004FB0023EEE70000074AD36823F4E06343
:1014CC001B041B0C000200F4E060034343F0BF63F9
:1014DC0043F40033D360704700ED00E010B50446D0
:1014EC00054BD868C0F30220FFF7C6FF0146204623
:1014FC00FFF7AEFF10BD00BF00ED00E0002807DBDA
:10150C0000F01F02400901239340024A42F82030A8
:10151C00704700BF00E100E00138B0F1807F0BD2D2
:10152C004FF0E0235861054AF02182F82310002087
:10153C00986107221A6170470120704700ED00E0A6
:10154C007047000000B583B04023ADF80430124C56
:10155C0001AA0121204600F081F840F29D5120465D
:10156C0000F058F800F0D4F80821204600F068F894
:10157C000A4800F04FFA0A4800F04CFA094800F00B
:10158C0077FA094B1B68002BFBD000F0D5F8064B03
:10159C0000221A60F5E700BF5C00002084010020E7
:1015AC003C010020F4000020AC0000200C4B8342D6
:1015BC0000D0704710B50B4B19880B4A1180198A53
:1015CC005180198C91801B8ED380084C04212046AD
:1015DC0000F084F80821204600F032F810BD00BF5E
:1015EC00F4000020B4000020540000205C00002017
:1015FC0008B5064B1A6802F1400324320021FFF7AC
:10160C00D2F8034B01221A6008BD00BFA4000020D1
:10161C00A800002038B50446002383600160C36035
:10162C00054D2846FFF71CF8044B1C600221284688
:10163C00FFF76EF938BD00BF28000020A400002081
:10164C0008B5016100F1200300F1180201460248BF
:10165C00FFF734F808BD00BF28000020F0B58BB0B0
:10166C000E4617460123089300240494069307940E
:10167C000D4607E0022D1ADC043D69461648FEF7BC
:10168C0069FF0134731E23D4B4EBA30F22DC234671
:10169C000594002DEEDDE20037F83410490100917D
:1016AC00012DE9DD3A44528852010192E2E7DA0059
:1016BC0007EBC3039B885B0102932B1F032D05DDF6
:1016CC003A44D288520103921D46D6E71D46D4E710
:1016DC000333D9E70BB0F0BD2800002000238B4268
:1016EC0015DA10B54FEA430C32F813E000EB430463
:1016FC004FEA1E2E84F818E032F813E00CF1010CBE
:10170C0084448CF818E001338B42EBDB10BD70473E
:10171C0000230CE007484FEA031C00EB03120021E6
:10172C0020F80C10516091600121D1600B44032B07
:10173C00F0DD7047B4000020124B1A68124B1B6886
:10174C00596A124B1B685B6A42F2107000FB031162
:10175C000F4B03EB02139868081A9960D9680D4B6C
:10176C00B3FBF1F383420CD300FB01F10A4BB3FB47
:10177C00F1F30749100101EB02120B5253680133CC
:10178C0053607047B0000020840100203C01002011
:10179C00B4000020801A0600808D5B00B0F5806FCD
:1017AC000CD0B0F5006F0DD0B0F5805F0ED0B0F559
:1017BC00005F0FD0094B01221A607047084B0022C2
:1017CC001A60F1E7064B01221A60F0E7044B022283
:1017DC001A60EFE7024B03221A60EBE7AC00002023
:1017EC00B000002000B587B000230293039304934C
:1017FC000593009301931648164A026040F27F222B
:10180C004260836042F20F72C26003614361836184
:10181C0000F056FA98B94FF48053029302A90C4881
:10182C0000F086FA70B920230093002301936946D7
:10183C00074800F081FB40B907B05DF804FBFEF7E8
:10184C00A5FCE8E7FEF7A2FCEDE7FEF79FFCF3E74B
:10185C0084010020002C014000B589B000230393C3
:10186C0004930593069307930193029315484FF045
:10187C0080420260436083604FF6FF72C260036176
:10188C00836100F01DFA98B9072303930023049396
:10189C0003A90C4800F027FB68B9002301930293BD
:1018AC0001A9084800F048FB40B909B05DF804FBF9
:1018BC00FEF76CFCE8E7FEF769FCEEE7FEF766FC6A
:1018CC00F3E700BF3C01002000B587B00023029372
:1018DC00039304930593009301931548154A0260F2
:1018EC0040F23F62426083606322C26003618361A5
:1018FC0000F0E6F990B94FF48053029302A90C481A
:10190C0000F016FA68B90023009301936946084861
:10191C0000F012FB40B907B05DF804FBFEF736FC93
:10192C00E9E7FEF733FCEEE7FEF730FCF3E700BF28
:10193C00F40000200004004000B585B003681B4A89
:10194C00934208D0B3F1804F10D0194A934219D06A
:10195C0005B05DF804FB174B9A6942F400629A617A
:10196C009B6903F400630193019BF1E703F50433D6
:10197C00DA6942F00102DA61DB6903F001030293D8
:10198C00029BE5E70B4BDA6942F00202DA61DB6994
:10199C0003F002030393039B002211461D20FFF763
:1019AC009DFD1D20FFF7AAFDD2E700BF002C0140D2
:1019BC00000400400010024010B4036A046A24F0D2
:1019CC0001040462846924F0F00C4CEA021223F046
:1019DC000A030B438261036210BC704710B4036AA4
:1019EC00046A24F010040462846924F4704C4CEAF8
:1019FC00023223F0A00343EA01138261036210BC9C
:101A0C007047836823F070030B4343F00703836034
:101A1C007047000090F83D30012B22D1022380F852
:101A2C003D300368114A934210D0B3F1804F0DD072
:101A3C00A2F59432934209D002F58062934205D00C
:101A4C001A6842F001021A60002070479A6802F08E
:101A5C000702062A07D01A6842F001021A60002019
:101A6C007047012070470020704700BF002C0140D8
:101A7C0090F83D30012B27D1022380F83D300268CD
:101A8C00D36843F00103D3600368114A934210D02A
:101A9C00B3F1804F0DD0A2F59432934209D002F5E8
:101AAC008062934205D01A6842F001021A6000204D
:101ABC0070479A6802F00702062A07D01A6842F0AB
:101ACC0001021A6000207047012070470020704707
:101ADC00002C0140704770477047704770B5044642
:101AEC000368DE681D6915F0020F10D016F0020FA6
:101AFC000DD06FF002021A610123037703689B6912
:101B0C0013F0030F5ED0FFF7E6FF0023237715F0E9
:101B1C00040F12D016F0040F0FD023686FF00402DC
:101B2C001A610223237723689B6913F4407F4FD0FB
:101B3C002046FFF7D0FF0023237715F0080F12D0B3
:101B4C0016F0080F0FD023686FF008021A610423F7
:101B5C0023772368DB6913F0030F40D02046FFF78F
:101B6C00BAFF0023237715F0100F12D016F0100FC8
:101B7C000FD023686FF010021A61082323772368B3
:101B8C00DB6913F4407F31D02046FFF7A4FF00231C
:101B9C00237715F0010F02D016F0010F2DD115F09F
:101BAC00800F02D016F0800F2FD115F0400F02D00D
:101BBC0016F0400F31D115F0200F02D016F0200F87
:101BCC0033D170BDFFF786FF2046FFF785FF9CE7FA
:101BDC002046FFF77FFF2046FFF77EFFABE720464E
:101BEC00FFF778FF2046FFF777FFBAE72046FFF7AD
:101BFC0071FF2046FFF770FFC9E723686FF0010201
:101C0C001A612046FFF7D2FCC9E723686FF0800207
:101C1C001A61204600F0C7F9C7E723686FF040024D
:101C2C001A612046FFF759FFC5E723686FF02002C1
:101C3C001A61204600F0B6F9C3E7000003681F4A9A
:101C4C0090420AD0B0F1804F07D0A2F59432904266
:101C5C0003D002F58062904203D123F070034A68EE
:101C6C001343164A90420AD0B0F1804F07D0A2F528
:101C7C009432904203D002F58062904203D123F457
:101C8C004073CA68134323F080034A69134303600B
:101C9C008B68C3620B688362084B98420AD001239D
:101CAC004361036913F0010F03D0036923F00103AF
:101CBC00036170470B690363F1E700BF002C01401F
:101CCC0040B310B5044690F83D30F3B1022384F8CC
:101CDC003D30214651F8040BFFF7B0FF012384F887
:101CEC00463084F83E3084F83F3084F8403084F835
:101CFC00413084F8423084F8433084F8443084F81E
:101D0C00453084F83D30002010BD80F83C30FFF7A2
:101D1C0013FEDBE70120704710B4846824F47F4C79
:101D2C0042EA03220A4342EA0C02826010BC70476A
:101D3C0090F83C30012B78D010B50446012380F884
:101D4C003C30022380F83D300268936823F47F43D3
:101D5C0023F0770393600B68602B4CD023D8402B77
:101D6C0054D011D8202B03D00AD80BB1102B05D18D
:101D7C0019462068FFF745FE002028E0012026E0E8
:101D8C00302BF5D0012022E0502B0AD1CA684968CB
:101D9C000068FFF711FE50212068FFF732FE00208B
:101DAC0015E0012013E0B3F5805F3AD0B3F5005F86
:101DBC0014D0702B37D1CB684A6889680068FFF75C
:101DCC00ABFF2268936843F07703936000200123F4
:101DDC0084F83D30002384F83C3010BDCB684A6851
:101DEC0089680068FFF798FF2268936843F4804382
:101DFC0093600020EBE7CA6849680068FFF7EEFDC6
:101E0C0060212068FFF7FDFD0020E0E7CA68496803
:101E1C000068FFF7D1FD40212068FFF7F2FD00209C
:101E2C00D5E70020D3E70120D1E70220704710B599
:101E3C000468A26822F070024B68134323F0070376
:101E4C000A681A43A2604B68502B30D00BD9602B18
:101E5C0034D0702B43D10B698A68C9680068FFF7CE
:101E6C005BFF002010BD402B0CD02ED8202B2ED089
:101E7C0004D873B3102B2ED10020F3E7302B2CD1C8
:101E8C000020EFE70B68052B2BD003681C6A1A6A3D
:101E9C0022F001021A620268936923F0F0030969C7
:101EAC0043EA0113936103681C620020DAE70A69B4
:101EBC0089680068FFF780FD0020D3E70A6989680C
:101ECC000068FFF78BFD0020CCE70120CAE700205B
:101EDC00C8E70020C6E70120C4E70120C2E70120C3
:101EEC00C0E70120BEE790F83C30012B22D010B5A2
:101EFC000446012380F83C30022380F83D30FFF784
:101F0C0096FF80B92268D36823F04003D36022681F
:101F1C00D36823F48043D360012384F83D3000233D
:101F2C0084F83C3010BD012084F83D00002384F877
:101F3C003C30F7E70220704790F83C20012A2CD067
:101F4C0010B40346012280F83C20022280F83D2088
:101F5C0002685068946820F0700C086840EA0C0025
:101F6C0050601A680E4882420AD0B2F1804F07D0F6
:101F7C00A0F59430824203D000F58060824204D1F7
:101F8C0024F08004496821439160012283F83D20AC
:101F9C00002083F83C0010BC70470220704700BF43
:101FAC00002C014070477047FFF7CAFA0B480C49E8
:101FBC000C4A002302E0D458C4500433C4188C4299
:101FCC00F9D3094A094C002301E013600432A24200
:101FDC00FBD300F017F8FEF70DF970470000002056
:101FEC000C0000209C2000080C000020CC010020DC
:101FFC00FEE703460244934200D1704703F8011BED
:10200C00F9E7000070B500260C4D0D4B5B1B9C10C6
:10201C00A64209D1002600F019F80A4D0A4B5B1BA9
:10202C009C10A64205D170BD55F8043B984701366B
:10203C00EEE755F8043B98470136F2E79420000888
:10204C00942000089420000898200008F8B500BFE0
:10205C00F8BC08BC9E467047F8B500BFF8BC08BC7D
:04206C009E467047D5
:102070000102000002030405060708090A0B0C0D03
:102080000E0F101000000000000000000102030409
:04209000060708092E
:0420940075010008CA
:042098004D010008EE
:0C209C00010000001000000000127A009B
:0400000508001FB51B
:00000001FF
